{
  "_format": "hh-sol-artifact-1",
  "contractName": "Organization",
  "sourceName": "contracts/Organization.sol",
  "abi": [
    {
      "inputs": [
        {
          "internalType": "string",
          "name": "_name",
          "type": "string"
        },
        {
          "internalType": "address[]",
          "name": "_members",
          "type": "address[]"
        }
      ],
      "stateMutability": "payable",
      "type": "constructor"
    },
    {
      "inputs": [],
      "name": "TransferFailed",
      "type": "error"
    },
    {
      "anonymous": false,
      "inputs": [
        {
          "indexed": true,
          "internalType": "address",
          "name": "member",
          "type": "address"
        }
      ],
      "name": "AddMember",
      "type": "event"
    },
    {
      "anonymous": false,
      "inputs": [
        {
          "indexed": true,
          "internalType": "address",
          "name": "from",
          "type": "address"
        },
        {
          "indexed": true,
          "internalType": "address[]",
          "name": "to",
          "type": "address[]"
        },
        {
          "indexed": false,
          "internalType": "uint256[]",
          "name": "value",
          "type": "uint256[]"
        }
      ],
      "name": "MultiTransfer",
      "type": "event"
    },
    {
      "anonymous": false,
      "inputs": [
        {
          "indexed": true,
          "internalType": "address",
          "name": "from",
          "type": "address"
        },
        {
          "indexed": false,
          "internalType": "uint256",
          "name": "value",
          "type": "uint256"
        }
      ],
      "name": "ReceiveEth",
      "type": "event"
    },
    {
      "anonymous": false,
      "inputs": [
        {
          "indexed": true,
          "internalType": "address",
          "name": "member",
          "type": "address"
        }
      ],
      "name": "RemoveMember",
      "type": "event"
    },
    {
      "anonymous": false,
      "inputs": [
        {
          "indexed": true,
          "internalType": "address",
          "name": "from",
          "type": "address"
        },
        {
          "indexed": true,
          "internalType": "address",
          "name": "to",
          "type": "address"
        },
        {
          "indexed": false,
          "internalType": "uint256",
          "name": "value",
          "type": "uint256"
        }
      ],
      "name": "Transfer",
      "type": "event"
    },
    {
      "inputs": [
        {
          "internalType": "address",
          "name": "_member",
          "type": "address"
        }
      ],
      "name": "addMember",
      "outputs": [],
      "stateMutability": "nonpayable",
      "type": "function"
    },
    {
      "inputs": [],
      "name": "getBalance",
      "outputs": [
        {
          "internalType": "uint256",
          "name": "",
          "type": "uint256"
        }
      ],
      "stateMutability": "view",
      "type": "function"
    },
    {
      "inputs": [
        {
          "internalType": "address",
          "name": "member",
          "type": "address"
        }
      ],
      "name": "getMember",
      "outputs": [
        {
          "internalType": "address",
          "name": "",
          "type": "address"
        }
      ],
      "stateMutability": "view",
      "type": "function"
    },
    {
      "inputs": [],
      "name": "getMemberCount",
      "outputs": [
        {
          "internalType": "uint256",
          "name": "",
          "type": "uint256"
        }
      ],
      "stateMutability": "view",
      "type": "function"
    },
    {
      "inputs": [],
      "name": "getMembers",
      "outputs": [
        {
          "internalType": "address[]",
          "name": "",
          "type": "address[]"
        }
      ],
      "stateMutability": "view",
      "type": "function"
    },
    {
      "inputs": [
        {
          "internalType": "uint256",
          "name": "",
          "type": "uint256"
        }
      ],
      "name": "members",
      "outputs": [
        {
          "internalType": "address",
          "name": "",
          "type": "address"
        }
      ],
      "stateMutability": "view",
      "type": "function"
    },
    {
      "inputs": [],
      "name": "name",
      "outputs": [
        {
          "internalType": "string",
          "name": "",
          "type": "string"
        }
      ],
      "stateMutability": "view",
      "type": "function"
    },
    {
      "inputs": [],
      "name": "owner",
      "outputs": [
        {
          "internalType": "address",
          "name": "",
          "type": "address"
        }
      ],
      "stateMutability": "view",
      "type": "function"
    },
    {
      "inputs": [
        {
          "internalType": "address payable",
          "name": "_member",
          "type": "address"
        },
        {
          "internalType": "uint256",
          "name": "_amount",
          "type": "uint256"
        }
      ],
      "name": "payMember",
      "outputs": [],
      "stateMutability": "payable",
      "type": "function"
    },
    {
      "inputs": [
        {
          "internalType": "address[]",
          "name": "_members",
          "type": "address[]"
        },
        {
          "internalType": "uint256[]",
          "name": "_amounts",
          "type": "uint256[]"
        }
      ],
      "name": "payMembers",
      "outputs": [],
      "stateMutability": "nonpayable",
      "type": "function"
    },
    {
      "inputs": [
        {
          "internalType": "address",
          "name": "_member",
          "type": "address"
        }
      ],
      "name": "removeMember",
      "outputs": [],
      "stateMutability": "nonpayable",
      "type": "function"
    },
    {
      "stateMutability": "payable",
      "type": "receive"
    }
  ],
  "bytecode": "0x6080604052604051620025be380380620025be8339818101604052810190620000299190620005ea565b336000806101000a81548173ffffffffffffffffffffffffffffffffffffffff021916908373ffffffffffffffffffffffffffffffffffffffff16021790555081600190816200007a9190620008ba565b5080600290805190602001906200009392919062000269565b50620000c560008054906101000a900473ffffffffffffffffffffffffffffffffffffffff16620000cd60201b60201c565b505062000acf565b6040518060400160405280600981526020017f6164644d656d626572000000000000000000000000000000000000000000000081525060008160405160200162000118919062000a33565b604051602081830303815290604052905060008054906101000a900473ffffffffffffffffffffffffffffffffffffffff1673ffffffffffffffffffffffffffffffffffffffff163373ffffffffffffffffffffffffffffffffffffffff16148190620001bd576040517f08c379a0000000000000000000000000000000000000000000000000000000008152600401620001b4919062000aab565b60405180910390fd5b506002839080600181540180825580915050600190039060005260206000200160009091909190916101000a81548173ffffffffffffffffffffffffffffffffffffffff021916908373ffffffffffffffffffffffffffffffffffffffff1602179055508273ffffffffffffffffffffffffffffffffffffffff167f1a2323d99020f3db8e6ea85b1eea81e5bf422695877228e3d8a0241d7e957a6c60405160405180910390a2505050565b828054828255906000526020600020908101928215620002e5579160200282015b82811115620002e45782518260006101000a81548173ffffffffffffffffffffffffffffffffffffffff021916908373ffffffffffffffffffffffffffffffffffffffff160217905550916020019190600101906200028a565b5b509050620002f49190620002f8565b5090565b5b8082111562000313576000816000905550600101620002f9565b5090565b6000604051905090565b600080fd5b600080fd5b600080fd5b600080fd5b6000601f19601f8301169050919050565b7f4e487b7100000000000000000000000000000000000000000000000000000000600052604160045260246000fd5b620003808262000335565b810181811067ffffffffffffffff82111715620003a257620003a162000346565b5b80604052505050565b6000620003b762000317565b9050620003c5828262000375565b919050565b600067ffffffffffffffff821115620003e857620003e762000346565b5b620003f38262000335565b9050602081019050919050565b60005b838110156200042057808201518184015260208101905062000403565b60008484015250505050565b6000620004436200043d84620003ca565b620003ab565b90508281526020810184848401111562000462576200046162000330565b5b6200046f84828562000400565b509392505050565b600082601f8301126200048f576200048e6200032b565b5b8151620004a18482602086016200042c565b91505092915050565b600067ffffffffffffffff821115620004c857620004c762000346565b5b602082029050602081019050919050565b600080fd5b600073ffffffffffffffffffffffffffffffffffffffff82169050919050565b60006200050b82620004de565b9050919050565b6200051d81620004fe565b81146200052957600080fd5b50565b6000815190506200053d8162000512565b92915050565b60006200055a6200055484620004aa565b620003ab565b9050808382526020820190506020840283018581111562000580576200057f620004d9565b5b835b81811015620005ad57806200059888826200052c565b84526020840193505060208101905062000582565b5050509392505050565b600082601f830112620005cf57620005ce6200032b565b5b8151620005e184826020860162000543565b91505092915050565b6000806040838503121562000604576200060362000321565b5b600083015167ffffffffffffffff81111562000625576200062462000326565b5b620006338582860162000477565b925050602083015167ffffffffffffffff81111562000657576200065662000326565b5b6200066585828601620005b7565b9150509250929050565b600081519050919050565b7f4e487b7100000000000000000000000000000000000000000000000000000000600052602260045260246000fd5b60006002820490506001821680620006c257607f821691505b602082108103620006d857620006d76200067a565b5b50919050565b60008190508160005260206000209050919050565b60006020601f8301049050919050565b600082821b905092915050565b600060088302620007427fffffffffffffffffffffffffffffffffffffffffffffffffffffffffffffffff8262000703565b6200074e868362000703565b95508019841693508086168417925050509392505050565b6000819050919050565b6000819050919050565b60006200079b620007956200078f8462000766565b62000770565b62000766565b9050919050565b6000819050919050565b620007b7836200077a565b620007cf620007c682620007a2565b84845462000710565b825550505050565b600090565b620007e6620007d7565b620007f3818484620007ac565b505050565b5b818110156200081b576200080f600082620007dc565b600181019050620007f9565b5050565b601f8211156200086a576200083481620006de565b6200083f84620006f3565b810160208510156200084f578190505b620008676200085e85620006f3565b830182620007f8565b50505b505050565b600082821c905092915050565b60006200088f600019846008026200086f565b1980831691505092915050565b6000620008aa83836200087c565b9150826002028217905092915050565b620008c5826200066f565b67ffffffffffffffff811115620008e157620008e062000346565b5b620008ed8254620006a9565b620008fa8282856200081f565b600060209050601f8311600181146200093257600084156200091d578287015190505b6200092985826200089c565b86555062000999565b601f1984166200094286620006de565b60005b828110156200096c5784890151825560018201915060208501945060208101905062000945565b868310156200098c578489015162000988601f8916826200087c565b8355505b6001600288020188555050505b505050505050565b600081905092915050565b7f4f6e6c7920746865206f776e65722063616e2063616c6c3a2000000000000000600082015250565b6000620009e4601983620009a1565b9150620009f182620009ac565b601982019050919050565b600062000a09826200066f565b62000a158185620009a1565b935062000a2781856020860162000400565b80840191505092915050565b600062000a4082620009d5565b915062000a4e8284620009fc565b915081905092915050565b600082825260208201905092915050565b600062000a77826200066f565b62000a83818562000a59565b935062000a9581856020860162000400565b62000aa08162000335565b840191505092915050565b6000602082019050818103600083015262000ac7818462000a6a565b905092915050565b611adf8062000adf6000396000f3fe6080604052600436106100a05760003560e01c80635daf08ca116100645780635daf08ca146101d25780638da5cb5b1461020f578063997072f71461023a5780639eab5253146102655780639efcc5e514610290578063ca6d56dc146102b9576100f5565b806306fdde03146100fa5780630a9fd056146101255780630b1ca49a1461014157806312065fe01461016a5780632ada259614610195576100f5565b366100f5573373ffffffffffffffffffffffffffffffffffffffff167fefc0288202e432ade6bf71491d0001d7e389ad4f8e4e9c7aa038dd1a563efc60346040516100eb9190610f43565b60405180910390a2005b600080fd5b34801561010657600080fd5b5061010f6102e2565b60405161011c9190610fee565b60405180910390f35b61013f600480360381019061013a91906110ae565b610370565b005b34801561014d57600080fd5b506101686004803603810190610163919061112c565b61064a565b005b34801561017657600080fd5b5061017f61090b565b60405161018c9190610f43565b60405180910390f35b3480156101a157600080fd5b506101bc60048036038101906101b7919061112c565b610913565b6040516101c99190611168565b60405180910390f35b3480156101de57600080fd5b506101f960048036038101906101f49190611183565b6109fe565b6040516102069190611168565b60405180910390f35b34801561021b57600080fd5b50610224610a3d565b6040516102319190611168565b60405180910390f35b34801561024657600080fd5b5061024f610a61565b60405161025c9190610f43565b60405180910390f35b34801561027157600080fd5b5061027a610a6e565b604051610287919061126e565b60405180910390f35b34801561029c57600080fd5b506102b760048036038101906102b2919061149b565b610afc565b005b3480156102c557600080fd5b506102e060048036038101906102db919061112c565b610d93565b005b600180546102ef90611542565b80601f016020809104026020016040519081016040528092919081815260200182805461031b90611542565b80156103685780601f1061033d57610100808354040283529160200191610368565b820191906000526020600020905b81548152906001019060200180831161034b57829003601f168201915b505050505081565b6040518060400160405280600981526020017f7061794d656d62657200000000000000000000000000000000000000000000008152506000816040516020016103b991906115fb565b604051602081830303815290604052905060008054906101000a900473ffffffffffffffffffffffffffffffffffffffff1673ffffffffffffffffffffffffffffffffffffffff163373ffffffffffffffffffffffffffffffffffffffff1614819061045b576040517f08c379a00000000000000000000000000000000000000000000000000000000081526004016104529190610fee565b60405180910390fd5b50826000479050808211156104a5576040517f08c379a000000000000000000000000000000000000000000000000000000000815260040161049c9061168f565b60405180910390fd5b85600073ffffffffffffffffffffffffffffffffffffffff166104c782610913565b73ffffffffffffffffffffffffffffffffffffffff160361051d576040517f08c379a0000000000000000000000000000000000000000000000000000000008152600401610514906116fb565b60405180910390fd5b8560008111610561576040517f08c379a000000000000000000000000000000000000000000000000000000000815260040161055890611767565b60405180910390fd5b60004790508873ffffffffffffffffffffffffffffffffffffffff166108fc899081150290604051600060405180830381858888f193505050501561060a578873ffffffffffffffffffffffffffffffffffffffff163073ffffffffffffffffffffffffffffffffffffffff167fddf252ad1be2c89b69c2b068fc378daa952ba7f163c4a11628f55a4df523b3ef8a6040516105fd9190610f43565b60405180910390a361063c565b6040517f90b8ec1800000000000000000000000000000000000000000000000000000000815260040160405180910390fd5b479050505050505050505050565b6040518060400160405280600c81526020017f72656d6f76654d656d626572000000000000000000000000000000000000000081525060008160405160200161069391906115fb565b604051602081830303815290604052905060008054906101000a900473ffffffffffffffffffffffffffffffffffffffff1673ffffffffffffffffffffffffffffffffffffffff163373ffffffffffffffffffffffffffffffffffffffff16148190610735576040517f08c379a000000000000000000000000000000000000000000000000000000000815260040161072c9190610fee565b60405180910390fd5b5060005b600280549050811015610905578373ffffffffffffffffffffffffffffffffffffffff166002828154811061077157610770611787565b5b9060005260206000200160009054906101000a900473ffffffffffffffffffffffffffffffffffffffff1673ffffffffffffffffffffffffffffffffffffffff16036108f257600260016002805490506107cb91906117e5565b815481106107dc576107db611787565b5b9060005260206000200160009054906101000a900473ffffffffffffffffffffffffffffffffffffffff166002828154811061081b5761081a611787565b5b9060005260206000200160006101000a81548173ffffffffffffffffffffffffffffffffffffffff021916908373ffffffffffffffffffffffffffffffffffffffff160217905550600280548061087557610874611819565b5b6001900381819060005260206000200160006101000a81549073ffffffffffffffffffffffffffffffffffffffff021916905590558373ffffffffffffffffffffffffffffffffffffffff167f7693a3e9eac51f172f145e6f54bc5554168997a1f4efb40f3fad091aa7cfb0e760405160405180910390a2610905565b80806108fd90611848565b915050610739565b50505050565b600047905090565b600080600090505b6002805490508110156109f3578273ffffffffffffffffffffffffffffffffffffffff166002828154811061095357610952611787565b5b9060005260206000200160009054906101000a900473ffffffffffffffffffffffffffffffffffffffff1673ffffffffffffffffffffffffffffffffffffffff16036109e057600281815481106109ad576109ac611787565b5b9060005260206000200160009054906101000a900473ffffffffffffffffffffffffffffffffffffffff169150506109f9565b80806109eb90611848565b91505061091b565b50600090505b919050565b60028181548110610a0e57600080fd5b906000526020600020016000915054906101000a900473ffffffffffffffffffffffffffffffffffffffff1681565b60008054906101000a900473ffffffffffffffffffffffffffffffffffffffff1681565b6000600280549050905090565b60606002805480602002602001604051908101604052809291908181526020018280548015610af257602002820191906000526020600020905b8160009054906101000a900473ffffffffffffffffffffffffffffffffffffffff1673ffffffffffffffffffffffffffffffffffffffff1681526020019060010190808311610aa8575b5050505050905090565b6040518060400160405280600a81526020017f7061794d656d6265727300000000000000000000000000000000000000000000815250600081604051602001610b4591906115fb565b604051602081830303815290604052905060008054906101000a900473ffffffffffffffffffffffffffffffffffffffff1673ffffffffffffffffffffffffffffffffffffffff163373ffffffffffffffffffffffffffffffffffffffff16148190610be7576040517f08c379a0000000000000000000000000000000000000000000000000000000008152600401610bde9190610fee565b60405180910390fd5b508251845114610c2c576040517f08c379a0000000000000000000000000000000000000000000000000000000008152600401610c2390611902565b60405180910390fd5b60005b8451811015610d28576000858281518110610c4d57610c4c611787565b5b60200260200101519050610c7b81868481518110610c6e57610c6d611787565b5b6020026020010151610370565b858281518110610c8e57610c8d611787565b5b602002602001015173ffffffffffffffffffffffffffffffffffffffff163073ffffffffffffffffffffffffffffffffffffffff167fddf252ad1be2c89b69c2b068fc378daa952ba7f163c4a11628f55a4df523b3ef878581518110610cf757610cf6611787565b5b6020026020010151604051610d0c9190610f43565b60405180910390a3508080610d2090611848565b915050610c2f565b5083604051610d3791906119b2565b60405180910390203073ffffffffffffffffffffffffffffffffffffffff167f241a23057732ac00bd2ebc66e77874ee28c66e432f1f35b2f5b16bd116dba1ce85604051610d859190611a87565b60405180910390a350505050565b6040518060400160405280600981526020017f6164644d656d6265720000000000000000000000000000000000000000000000815250600081604051602001610ddc91906115fb565b604051602081830303815290604052905060008054906101000a900473ffffffffffffffffffffffffffffffffffffffff1673ffffffffffffffffffffffffffffffffffffffff163373ffffffffffffffffffffffffffffffffffffffff16148190610e7e576040517f08c379a0000000000000000000000000000000000000000000000000000000008152600401610e759190610fee565b60405180910390fd5b506002839080600181540180825580915050600190039060005260206000200160009091909190916101000a81548173ffffffffffffffffffffffffffffffffffffffff021916908373ffffffffffffffffffffffffffffffffffffffff1602179055508273ffffffffffffffffffffffffffffffffffffffff167f1a2323d99020f3db8e6ea85b1eea81e5bf422695877228e3d8a0241d7e957a6c60405160405180910390a2505050565b6000819050919050565b610f3d81610f2a565b82525050565b6000602082019050610f586000830184610f34565b92915050565b600081519050919050565b600082825260208201905092915050565b60005b83811015610f98578082015181840152602081019050610f7d565b60008484015250505050565b6000601f19601f8301169050919050565b6000610fc082610f5e565b610fca8185610f69565b9350610fda818560208601610f7a565b610fe381610fa4565b840191505092915050565b600060208201905081810360008301526110088184610fb5565b905092915050565b6000604051905090565b600080fd5b600080fd5b600073ffffffffffffffffffffffffffffffffffffffff82169050919050565b600061104f82611024565b9050919050565b61105f81611044565b811461106a57600080fd5b50565b60008135905061107c81611056565b92915050565b61108b81610f2a565b811461109657600080fd5b50565b6000813590506110a881611082565b92915050565b600080604083850312156110c5576110c461101a565b5b60006110d38582860161106d565b92505060206110e485828601611099565b9150509250929050565b60006110f982611024565b9050919050565b611109816110ee565b811461111457600080fd5b50565b60008135905061112681611100565b92915050565b6000602082840312156111425761114161101a565b5b600061115084828501611117565b91505092915050565b611162816110ee565b82525050565b600060208201905061117d6000830184611159565b92915050565b6000602082840312156111995761119861101a565b5b60006111a784828501611099565b91505092915050565b600081519050919050565b600082825260208201905092915050565b6000819050602082019050919050565b6111e5816110ee565b82525050565b60006111f783836111dc565b60208301905092915050565b6000602082019050919050565b600061121b826111b0565b61122581856111bb565b9350611230836111cc565b8060005b8381101561126157815161124888826111eb565b975061125383611203565b925050600181019050611234565b5085935050505092915050565b600060208201905081810360008301526112888184611210565b905092915050565b600080fd5b7f4e487b7100000000000000000000000000000000000000000000000000000000600052604160045260246000fd5b6112cd82610fa4565b810181811067ffffffffffffffff821117156112ec576112eb611295565b5b80604052505050565b60006112ff611010565b905061130b82826112c4565b919050565b600067ffffffffffffffff82111561132b5761132a611295565b5b602082029050602081019050919050565b600080fd5b600061135461134f84611310565b6112f5565b905080838252602082019050602084028301858111156113775761137661133c565b5b835b818110156113a0578061138c8882611117565b845260208401935050602081019050611379565b5050509392505050565b600082601f8301126113bf576113be611290565b5b81356113cf848260208601611341565b91505092915050565b600067ffffffffffffffff8211156113f3576113f2611295565b5b602082029050602081019050919050565b6000611417611412846113d8565b6112f5565b9050808382526020820190506020840283018581111561143a5761143961133c565b5b835b81811015611463578061144f8882611099565b84526020840193505060208101905061143c565b5050509392505050565b600082601f83011261148257611481611290565b5b8135611492848260208601611404565b91505092915050565b600080604083850312156114b2576114b161101a565b5b600083013567ffffffffffffffff8111156114d0576114cf61101f565b5b6114dc858286016113aa565b925050602083013567ffffffffffffffff8111156114fd576114fc61101f565b5b6115098582860161146d565b9150509250929050565b7f4e487b7100000000000000000000000000000000000000000000000000000000600052602260045260246000fd5b6000600282049050600182168061155a57607f821691505b60208210810361156d5761156c611513565b5b50919050565b600081905092915050565b7f4f6e6c7920746865206f776e65722063616e2063616c6c3a2000000000000000600082015250565b60006115b4601983611573565b91506115bf8261157e565b601982019050919050565b60006115d582610f5e565b6115df8185611573565b93506115ef818560208601610f7a565b80840191505092915050565b6000611606826115a7565b915061161282846115ca565b915081905092915050565b7f596f75206d7573742073656e642074686520636f727265637420616d6f756e7460008201527f206f662045746865720000000000000000000000000000000000000000000000602082015250565b6000611679602983610f69565b91506116848261161d565b604082019050919050565b600060208201905081810360008301526116a88161166c565b9050919050565b7f4d656d62657220646f6573206e6f742065786973740000000000000000000000600082015250565b60006116e5601583610f69565b91506116f0826116af565b602082019050919050565b60006020820190508181036000830152611714816116d8565b9050919050565b7f596f75206d7573742073656e6420736f6d652045746865720000000000000000600082015250565b6000611751601883610f69565b915061175c8261171b565b602082019050919050565b6000602082019050818103600083015261178081611744565b9050919050565b7f4e487b7100000000000000000000000000000000000000000000000000000000600052603260045260246000fd5b7f4e487b7100000000000000000000000000000000000000000000000000000000600052601160045260246000fd5b60006117f082610f2a565b91506117fb83610f2a565b9250828203905081811115611813576118126117b6565b5b92915050565b7f4e487b7100000000000000000000000000000000000000000000000000000000600052603160045260246000fd5b600061185382610f2a565b91507fffffffffffffffffffffffffffffffffffffffffffffffffffffffffffffffff8203611885576118846117b6565b5b600182019050919050565b7f596f75206d7573742073656e642074686520636f727265637420616d6f756e7460008201527f206f66206d656d6265727320616e6420616d6f756e7473000000000000000000602082015250565b60006118ec603783610f69565b91506118f782611890565b604082019050919050565b6000602082019050818103600083015261191b816118df565b9050919050565b600081905092915050565b611936816110ee565b82525050565b6000611948838361192d565b60208301905092915050565b600061195f826111b0565b6119698185611922565b9350611974836111cc565b8060005b838110156119a557815161198c888261193c565b975061199783611203565b925050600181019050611978565b5085935050505092915050565b60006119be8284611954565b915081905092915050565b600081519050919050565b600082825260208201905092915050565b6000819050602082019050919050565b6119fe81610f2a565b82525050565b6000611a1083836119f5565b60208301905092915050565b6000602082019050919050565b6000611a34826119c9565b611a3e81856119d4565b9350611a49836119e5565b8060005b83811015611a7a578151611a618882611a04565b9750611a6c83611a1c565b925050600181019050611a4d565b5085935050505092915050565b60006020820190508181036000830152611aa18184611a29565b90509291505056fea2646970667358221220edb2130de8ab719f837aeeebc43d45e71acddc694aaaba131d86e5fdc9aa970b64736f6c63430008110033",
  "linkReferences": {},
  "deployedLinkReferences": {}
}