{
  "_format": "hh-sol-artifact-1",
  "contractName": "OrganizationV1",
  "sourceName": "contracts/OrganizationV1.sol",
  "abi": [
    {
      "inputs": [
        {
          "internalType": "string",
          "name": "_name",
          "type": "string"
        },
        {
          "internalType": "address[]",
          "name": "_members",
          "type": "address[]"
        }
      ],
      "stateMutability": "payable",
      "type": "constructor"
    },
    {
      "inputs": [],
      "name": "NotEnoughEtherBalance",
      "type": "error"
    },
    {
      "inputs": [],
      "name": "TransferFailed",
      "type": "error"
    },
    {
      "anonymous": false,
      "inputs": [
        {
          "indexed": true,
          "internalType": "address",
          "name": "member",
          "type": "address"
        }
      ],
      "name": "AddMember",
      "type": "event"
    },
    {
      "anonymous": false,
      "inputs": [
        {
          "indexed": true,
          "internalType": "address",
          "name": "previousController",
          "type": "address"
        },
        {
          "indexed": true,
          "internalType": "address",
          "name": "newController",
          "type": "address"
        }
      ],
      "name": "ControllershipTransferred",
      "type": "event"
    },
    {
      "anonymous": false,
      "inputs": [
        {
          "indexed": true,
          "internalType": "address",
          "name": "from",
          "type": "address"
        },
        {
          "indexed": true,
          "internalType": "address[]",
          "name": "to",
          "type": "address[]"
        },
        {
          "indexed": false,
          "internalType": "uint256",
          "name": "value",
          "type": "uint256"
        }
      ],
      "name": "MultiTransfer",
      "type": "event"
    },
    {
      "anonymous": false,
      "inputs": [
        {
          "indexed": true,
          "internalType": "address",
          "name": "previousOwner",
          "type": "address"
        },
        {
          "indexed": true,
          "internalType": "address",
          "name": "newOwner",
          "type": "address"
        }
      ],
      "name": "OwnershipTransferred",
      "type": "event"
    },
    {
      "anonymous": false,
      "inputs": [
        {
          "indexed": true,
          "internalType": "address",
          "name": "from",
          "type": "address"
        },
        {
          "indexed": false,
          "internalType": "uint256",
          "name": "value",
          "type": "uint256"
        }
      ],
      "name": "ReceiveEth",
      "type": "event"
    },
    {
      "anonymous": false,
      "inputs": [
        {
          "indexed": true,
          "internalType": "address",
          "name": "member",
          "type": "address"
        }
      ],
      "name": "RemoveMember",
      "type": "event"
    },
    {
      "anonymous": false,
      "inputs": [
        {
          "indexed": true,
          "internalType": "address",
          "name": "from",
          "type": "address"
        },
        {
          "indexed": true,
          "internalType": "address",
          "name": "to",
          "type": "address"
        },
        {
          "indexed": false,
          "internalType": "uint256",
          "name": "value",
          "type": "uint256"
        }
      ],
      "name": "Transfer",
      "type": "event"
    },
    {
      "inputs": [
        {
          "internalType": "address",
          "name": "account",
          "type": "address"
        }
      ],
      "name": "addMember",
      "outputs": [],
      "stateMutability": "nonpayable",
      "type": "function"
    },
    {
      "inputs": [
        {
          "internalType": "address[]",
          "name": "_members",
          "type": "address[]"
        }
      ],
      "name": "addMembers",
      "outputs": [],
      "stateMutability": "nonpayable",
      "type": "function"
    },
    {
      "inputs": [],
      "name": "controller",
      "outputs": [
        {
          "internalType": "address",
          "name": "",
          "type": "address"
        }
      ],
      "stateMutability": "view",
      "type": "function"
    },
    {
      "inputs": [],
      "name": "getBalance",
      "outputs": [
        {
          "internalType": "uint256",
          "name": "",
          "type": "uint256"
        }
      ],
      "stateMutability": "view",
      "type": "function"
    },
    {
      "inputs": [
        {
          "internalType": "address",
          "name": "account",
          "type": "address"
        }
      ],
      "name": "getMember",
      "outputs": [
        {
          "components": [
            {
              "internalType": "address",
              "name": "account",
              "type": "address"
            },
            {
              "internalType": "uint256",
              "name": "balance",
              "type": "uint256"
            },
            {
              "internalType": "bool",
              "name": "exists",
              "type": "bool"
            },
            {
              "internalType": "bool",
              "name": "active",
              "type": "bool"
            }
          ],
          "internalType": "struct Member",
          "name": "",
          "type": "tuple"
        }
      ],
      "stateMutability": "view",
      "type": "function"
    },
    {
      "inputs": [],
      "name": "getMemberCount",
      "outputs": [
        {
          "internalType": "uint256",
          "name": "",
          "type": "uint256"
        }
      ],
      "stateMutability": "view",
      "type": "function"
    },
    {
      "inputs": [],
      "name": "getMembers",
      "outputs": [
        {
          "components": [
            {
              "internalType": "address",
              "name": "account",
              "type": "address"
            },
            {
              "internalType": "uint256",
              "name": "balance",
              "type": "uint256"
            },
            {
              "internalType": "bool",
              "name": "exists",
              "type": "bool"
            },
            {
              "internalType": "bool",
              "name": "active",
              "type": "bool"
            }
          ],
          "internalType": "struct Member[]",
          "name": "",
          "type": "tuple[]"
        }
      ],
      "stateMutability": "view",
      "type": "function"
    },
    {
      "inputs": [
        {
          "internalType": "uint256",
          "name": "",
          "type": "uint256"
        }
      ],
      "name": "members",
      "outputs": [
        {
          "internalType": "address",
          "name": "account",
          "type": "address"
        },
        {
          "internalType": "uint256",
          "name": "balance",
          "type": "uint256"
        },
        {
          "internalType": "bool",
          "name": "exists",
          "type": "bool"
        },
        {
          "internalType": "bool",
          "name": "active",
          "type": "bool"
        }
      ],
      "stateMutability": "view",
      "type": "function"
    },
    {
      "inputs": [],
      "name": "name",
      "outputs": [
        {
          "internalType": "string",
          "name": "",
          "type": "string"
        }
      ],
      "stateMutability": "view",
      "type": "function"
    },
    {
      "inputs": [],
      "name": "owner",
      "outputs": [
        {
          "internalType": "address",
          "name": "",
          "type": "address"
        }
      ],
      "stateMutability": "view",
      "type": "function"
    },
    {
      "inputs": [
        {
          "internalType": "address payable",
          "name": "_member",
          "type": "address"
        },
        {
          "internalType": "uint256",
          "name": "_amount",
          "type": "uint256"
        }
      ],
      "name": "payMember",
      "outputs": [],
      "stateMutability": "nonpayable",
      "type": "function"
    },
    {
      "inputs": [
        {
          "internalType": "bytes",
          "name": "_payments",
          "type": "bytes"
        }
      ],
      "name": "payMembers",
      "outputs": [],
      "stateMutability": "nonpayable",
      "type": "function"
    },
    {
      "inputs": [
        {
          "internalType": "uint256",
          "name": "",
          "type": "uint256"
        }
      ],
      "name": "payments",
      "outputs": [
        {
          "internalType": "address",
          "name": "to",
          "type": "address"
        },
        {
          "internalType": "uint256",
          "name": "amount",
          "type": "uint256"
        },
        {
          "internalType": "uint256",
          "name": "timestamp",
          "type": "uint256"
        }
      ],
      "stateMutability": "view",
      "type": "function"
    },
    {
      "inputs": [
        {
          "internalType": "address",
          "name": "account",
          "type": "address"
        }
      ],
      "name": "removeMember",
      "outputs": [],
      "stateMutability": "nonpayable",
      "type": "function"
    },
    {
      "inputs": [],
      "name": "renounceOwnership",
      "outputs": [],
      "stateMutability": "nonpayable",
      "type": "function"
    },
    {
      "inputs": [
        {
          "internalType": "address",
          "name": "newController",
          "type": "address"
        }
      ],
      "name": "transferControllership",
      "outputs": [],
      "stateMutability": "nonpayable",
      "type": "function"
    },
    {
      "inputs": [
        {
          "internalType": "address",
          "name": "newOwner",
          "type": "address"
        }
      ],
      "name": "transferOwnership",
      "outputs": [],
      "stateMutability": "nonpayable",
      "type": "function"
    },
    {
      "stateMutability": "payable",
      "type": "receive"
    }
  ],
  "bytecode": "0x608060405260405162003d4c38038062003d4c833981810160405281019062000029919062000aab565b620000396200008460201b60201c565b81600290816200004a919062000d7b565b506200005c81620001bd60201b60201c565b6200007c620000706200030760201b60201c565b6200033160201b60201c565b5050620010ad565b33600160006101000a81548173ffffffffffffffffffffffffffffffffffffffff021916908373ffffffffffffffffffffffffffffffffffffffff160217905550336000806101000a81548173ffffffffffffffffffffffffffffffffffffffff021916908373ffffffffffffffffffffffffffffffffffffffff1602179055503373ffffffffffffffffffffffffffffffffffffffff16600073ffffffffffffffffffffffffffffffffffffffff167f8be0079c531659141344cd1fd0a4f28419497f9722a3daafe3b4186f6b6457e060405160405180910390a33373ffffffffffffffffffffffffffffffffffffffff16600073ffffffffffffffffffffffffffffffffffffffff167ff2d963efb295a04596a9ef8911542f152426704d31549c5e2d60cc7855bd8ffb60405160405180910390a3565b6040518060400160405280600a81526020017f6164644d656d626572730000000000000000000000000000000000000000000081525060008160405160200162000208919062000ef4565b6040516020818303038152906040529050600160009054906101000a900473ffffffffffffffffffffffffffffffffffffffff1673ffffffffffffffffffffffffffffffffffffffff163373ffffffffffffffffffffffffffffffffffffffff16148190620002af576040517f08c379a0000000000000000000000000000000000000000000000000000000008152600401620002a6919062000f6c565b60405180910390fd5b5060005b83518110156200030157620002eb848281518110620002d757620002d662000f90565b5b60200260200101516200033160201b60201c565b8080620002f89062000fee565b915050620002b3565b50505050565b6000600160009054906101000a900473ffffffffffffffffffffffffffffffffffffffff16905090565b6040518060400160405280600981526020017f6164644d656d62657200000000000000000000000000000000000000000000008152506000816040516020016200037c919062000ef4565b6040516020818303038152906040529050600160009054906101000a900473ffffffffffffffffffffffffffffffffffffffff1673ffffffffffffffffffffffffffffffffffffffff163373ffffffffffffffffffffffffffffffffffffffff1614819062000423576040517f08c379a00000000000000000000000000000000000000000000000000000000081526004016200041a919062000f6c565b60405180910390fd5b5082600015156200043a82620005d260201b60201c565b6040015115151462000483576040517f08c379a00000000000000000000000000000000000000000000000000000000081526004016200047a906200108b565b60405180910390fd5b600060405180608001604052808673ffffffffffffffffffffffffffffffffffffffff16815260200160008152602001600115158152602001600115158152509050600481908060018154018082558091505060019003906000526020600020906003020160009091909190915060008201518160000160006101000a81548173ffffffffffffffffffffffffffffffffffffffff021916908373ffffffffffffffffffffffffffffffffffffffff1602179055506020820151816001015560408201518160020160006101000a81548160ff02191690831515021790555060608201518160020160016101000a81548160ff0219169083151502179055505050806000015173ffffffffffffffffffffffffffffffffffffffff167f1a2323d99020f3db8e6ea85b1eea81e5bf422695877228e3d8a0241d7e957a6c60405160405180910390a25050505050565b620005dc62000796565b60005b6004805490508110156200074e578273ffffffffffffffffffffffffffffffffffffffff16600482815481106200061b576200061a62000f90565b5b906000526020600020906003020160000160009054906101000a900473ffffffffffffffffffffffffffffffffffffffff1673ffffffffffffffffffffffffffffffffffffffff160362000738576004818154811062000680576200067f62000f90565b5b90600052602060002090600302016040518060800160405290816000820160009054906101000a900473ffffffffffffffffffffffffffffffffffffffff1673ffffffffffffffffffffffffffffffffffffffff1673ffffffffffffffffffffffffffffffffffffffff168152602001600182015481526020016002820160009054906101000a900460ff161515151581526020016002820160019054906101000a900460ff16151515158152505091505062000791565b8080620007459062000fee565b915050620005df565b506040518060800160405280600073ffffffffffffffffffffffffffffffffffffffff168152602001600081526020016000151581526020016000151581525090505b919050565b6040518060800160405280600073ffffffffffffffffffffffffffffffffffffffff168152602001600081526020016000151581526020016000151581525090565b6000604051905090565b600080fd5b600080fd5b600080fd5b600080fd5b6000601f19601f8301169050919050565b7f4e487b7100000000000000000000000000000000000000000000000000000000600052604160045260246000fd5b6200084182620007f6565b810181811067ffffffffffffffff8211171562000863576200086262000807565b5b80604052505050565b600062000878620007d8565b905062000886828262000836565b919050565b600067ffffffffffffffff821115620008a957620008a862000807565b5b620008b482620007f6565b9050602081019050919050565b60005b83811015620008e1578082015181840152602081019050620008c4565b60008484015250505050565b600062000904620008fe846200088b565b6200086c565b905082815260208101848484011115620009235762000922620007f1565b5b62000930848285620008c1565b509392505050565b600082601f83011262000950576200094f620007ec565b5b815162000962848260208601620008ed565b91505092915050565b600067ffffffffffffffff82111562000989576200098862000807565b5b602082029050602081019050919050565b600080fd5b600073ffffffffffffffffffffffffffffffffffffffff82169050919050565b6000620009cc826200099f565b9050919050565b620009de81620009bf565b8114620009ea57600080fd5b50565b600081519050620009fe81620009d3565b92915050565b600062000a1b62000a15846200096b565b6200086c565b9050808382526020820190506020840283018581111562000a415762000a406200099a565b5b835b8181101562000a6e578062000a598882620009ed565b84526020840193505060208101905062000a43565b5050509392505050565b600082601f83011262000a905762000a8f620007ec565b5b815162000aa284826020860162000a04565b91505092915050565b6000806040838503121562000ac55762000ac4620007e2565b5b600083015167ffffffffffffffff81111562000ae65762000ae5620007e7565b5b62000af48582860162000938565b925050602083015167ffffffffffffffff81111562000b185762000b17620007e7565b5b62000b268582860162000a78565b9150509250929050565b600081519050919050565b7f4e487b7100000000000000000000000000000000000000000000000000000000600052602260045260246000fd5b6000600282049050600182168062000b8357607f821691505b60208210810362000b995762000b9862000b3b565b5b50919050565b60008190508160005260206000209050919050565b60006020601f8301049050919050565b600082821b905092915050565b60006008830262000c037fffffffffffffffffffffffffffffffffffffffffffffffffffffffffffffffff8262000bc4565b62000c0f868362000bc4565b95508019841693508086168417925050509392505050565b6000819050919050565b6000819050919050565b600062000c5c62000c5662000c508462000c27565b62000c31565b62000c27565b9050919050565b6000819050919050565b62000c788362000c3b565b62000c9062000c878262000c63565b84845462000bd1565b825550505050565b600090565b62000ca762000c98565b62000cb481848462000c6d565b505050565b5b8181101562000cdc5762000cd060008262000c9d565b60018101905062000cba565b5050565b601f82111562000d2b5762000cf58162000b9f565b62000d008462000bb4565b8101602085101562000d10578190505b62000d2862000d1f8562000bb4565b83018262000cb9565b50505b505050565b600082821c905092915050565b600062000d506000198460080262000d30565b1980831691505092915050565b600062000d6b838362000d3d565b9150826002028217905092915050565b62000d868262000b30565b67ffffffffffffffff81111562000da25762000da162000807565b5b62000dae825462000b6a565b62000dbb82828562000ce0565b600060209050601f83116001811462000df3576000841562000dde578287015190505b62000dea858262000d5d565b86555062000e5a565b601f19841662000e038662000b9f565b60005b8281101562000e2d5784890151825560018201915060208501945060208101905062000e06565b8683101562000e4d578489015162000e49601f89168262000d3d565b8355505b6001600288020188555050505b505050505050565b600081905092915050565b7f4f6e6c792074686520636f6e74726f6c6c65722063616e2063616c6c3a200000600082015250565b600062000ea5601e8362000e62565b915062000eb28262000e6d565b601e82019050919050565b600062000eca8262000b30565b62000ed6818562000e62565b935062000ee8818560208601620008c1565b80840191505092915050565b600062000f018262000e96565b915062000f0f828462000ebd565b915081905092915050565b600082825260208201905092915050565b600062000f388262000b30565b62000f44818562000f1a565b935062000f56818560208601620008c1565b62000f6181620007f6565b840191505092915050565b6000602082019050818103600083015262000f88818462000f2b565b905092915050565b7f4e487b7100000000000000000000000000000000000000000000000000000000600052603260045260246000fd5b7f4e487b7100000000000000000000000000000000000000000000000000000000600052601160045260246000fd5b600062000ffb8262000c27565b91507fffffffffffffffffffffffffffffffffffffffffffffffffffffffffffffffff820362001030576200102f62000fbf565b5b600182019050919050565b7f4d656d62657220616c7265616479206578697374730000000000000000000000600082015250565b60006200107360158362000f1a565b915062001080826200103b565b602082019050919050565b60006020820190508181036000830152620010a68162001064565b9050919050565b612c8f80620010bd6000396000f3fe6080604052600436106101025760003560e01c8063715018a6116100955780639eab5253116100645780639eab52531461037f578063ca6d56dc146103aa578063f2fde38b146103d3578063f77c4791146103fc578063fbcea7981461042757610157565b8063715018a6146102d357806387d81789146102ea5780638da5cb5b14610329578063997072f71461035457610157565b80632ada2596116100d15780632ada2596146102045780633dbb8950146102415780635daf08ca1461026a5780636f4d469b146102aa57610157565b806306fdde031461015c5780630a9fd056146101875780630b1ca49a146101b057806312065fe0146101d957610157565b36610157573373ffffffffffffffffffffffffffffffffffffffff167fefc0288202e432ade6bf71491d0001d7e389ad4f8e4e9c7aa038dd1a563efc603460405161014d9190611d13565b60405180910390a2005b600080fd5b34801561016857600080fd5b50610171610450565b60405161017e9190611dbe565b60405180910390f35b34801561019357600080fd5b506101ae60048036038101906101a99190611e7e565b6104de565b005b3480156101bc57600080fd5b506101d760048036038101906101d29190611efc565b6107b4565b005b3480156101e557600080fd5b506101ee610bac565b6040516101fb9190611d13565b60405180910390f35b34801561021057600080fd5b5061022b60048036038101906102269190611efc565b610bb4565b6040516102389190611fb7565b60405180910390f35b34801561024d57600080fd5b5061026860048036038101906102639190611efc565b610d6a565b005b34801561027657600080fd5b50610291600480360381019061028c9190611fd2565b610f89565b6040516102a1949392919061201d565b60405180910390f35b3480156102b657600080fd5b506102d160048036038101906102cc91906121aa565b611003565b005b3480156102df57600080fd5b506102e8611139565b005b3480156102f657600080fd5b50610311600480360381019061030c9190611fd2565b6112e5565b604051610320939291906121f3565b60405180910390f35b34801561033557600080fd5b5061033e61133f565b60405161034b919061222a565b60405180910390f35b34801561036057600080fd5b50610369611368565b6040516103769190611d13565b60405180910390f35b34801561038b57600080fd5b50610394611375565b6040516103a19190612349565b60405180910390f35b3480156103b657600080fd5b506103d160048036038101906103cc9190611efc565b61146a565b005b3480156103df57600080fd5b506103fa60048036038101906103f59190611efc565b6116fb565b005b34801561040857600080fd5b50610411611917565b60405161041e919061222a565b60405180910390f35b34801561043357600080fd5b5061044e60048036038101906104499190612420565b611941565b005b6002805461045d90612498565b80601f016020809104026020016040519081016040528092919081815260200182805461048990612498565b80156104d65780601f106104ab576101008083540402835291602001916104d6565b820191906000526020600020905b8154815290600101906020018083116104b957829003601f168201915b505050505081565b6040518060400160405280600981526020017f7061794d656d62657200000000000000000000000000000000000000000000008152506000816040516020016105279190612551565b6040516020818303038152906040529050600160009054906101000a900473ffffffffffffffffffffffffffffffffffffffff1673ffffffffffffffffffffffffffffffffffffffff163373ffffffffffffffffffffffffffffffffffffffff161481906105cb576040517f08c379a00000000000000000000000000000000000000000000000000000000081526004016105c29190611dbe565b60405180910390fd5b508260008111610610576040517f08c379a0000000000000000000000000000000000000000000000000000000008152600401610607906125bf565b60405180910390fd5b83600047905080821115610659576040517f08c379a000000000000000000000000000000000000000000000000000000000815260040161065090612651565b60405180910390fd5b868073ffffffffffffffffffffffffffffffffffffffff1661067a82610bb4565b6000015173ffffffffffffffffffffffffffffffffffffffff16146106d4576040517f08c379a00000000000000000000000000000000000000000000000000000000081526004016106cb906126bd565b60405180910390fd5b8773ffffffffffffffffffffffffffffffffffffffff166108fc889081150290604051600060405180830381858888f1935050505015610778578773ffffffffffffffffffffffffffffffffffffffff163073ffffffffffffffffffffffffffffffffffffffff167fddf252ad1be2c89b69c2b068fc378daa952ba7f163c4a11628f55a4df523b3ef8960405161076b9190611d13565b60405180910390a36107aa565b6040517f90b8ec1800000000000000000000000000000000000000000000000000000000815260040160405180910390fd5b5050505050505050565b6040518060400160405280600c81526020017f72656d6f76654d656d62657200000000000000000000000000000000000000008152506000816040516020016107fd9190612551565b6040516020818303038152906040529050600160009054906101000a900473ffffffffffffffffffffffffffffffffffffffff1673ffffffffffffffffffffffffffffffffffffffff163373ffffffffffffffffffffffffffffffffffffffff161481906108a1576040517f08c379a00000000000000000000000000000000000000000000000000000000081526004016108989190611dbe565b60405180910390fd5b50828073ffffffffffffffffffffffffffffffffffffffff166108c382610bb4565b6000015173ffffffffffffffffffffffffffffffffffffffff161461091d576040517f08c379a0000000000000000000000000000000000000000000000000000000008152600401610914906126bd565b60405180910390fd5b60005b600480549050811015610ba5578473ffffffffffffffffffffffffffffffffffffffff1660048281548110610958576109576126dd565b5b906000526020600020906003020160000160009054906101000a900473ffffffffffffffffffffffffffffffffffffffff1673ffffffffffffffffffffffffffffffffffffffff1603610b9257600460016004805490506109b9919061273b565b815481106109ca576109c96126dd565b5b9060005260206000209060030201600482815481106109ec576109eb6126dd565b5b90600052602060002090600302016000820160009054906101000a900473ffffffffffffffffffffffffffffffffffffffff168160000160006101000a81548173ffffffffffffffffffffffffffffffffffffffff021916908373ffffffffffffffffffffffffffffffffffffffff160217905550600182015481600101556002820160009054906101000a900460ff168160020160006101000a81548160ff0219169083151502179055506002820160019054906101000a900460ff168160020160016101000a81548160ff0219169083151502179055509050506004805480610ada57610ad961276f565b5b6001900381819060005260206000209060030201600080820160006101000a81549073ffffffffffffffffffffffffffffffffffffffff021916905560018201600090556002820160006101000a81549060ff02191690556002820160016101000a81549060ff0219169055505090558473ffffffffffffffffffffffffffffffffffffffff167f7693a3e9eac51f172f145e6f54bc5554168997a1f4efb40f3fad091aa7cfb0e760405160405180910390a2610ba5565b8080610b9d9061279e565b915050610920565b5050505050565b600047905090565b610bbc611cb8565b60005b600480549050811015610d22578273ffffffffffffffffffffffffffffffffffffffff1660048281548110610bf757610bf66126dd565b5b906000526020600020906003020160000160009054906101000a900473ffffffffffffffffffffffffffffffffffffffff1673ffffffffffffffffffffffffffffffffffffffff1603610d0f5760048181548110610c5857610c576126dd565b5b90600052602060002090600302016040518060800160405290816000820160009054906101000a900473ffffffffffffffffffffffffffffffffffffffff1673ffffffffffffffffffffffffffffffffffffffff1673ffffffffffffffffffffffffffffffffffffffff168152602001600182015481526020016002820160009054906101000a900460ff161515151581526020016002820160019054906101000a900460ff161515151581525050915050610d65565b8080610d1a9061279e565b915050610bbf565b506040518060800160405280600073ffffffffffffffffffffffffffffffffffffffff168152602001600081526020016000151581526020016000151581525090505b919050565b6040518060400160405280601181526020017f7472616e736665724f776e657273686970000000000000000000000000000000815250600081604051602001610db39190612832565b604051602081830303815290604052905060008054906101000a900473ffffffffffffffffffffffffffffffffffffffff1673ffffffffffffffffffffffffffffffffffffffff163373ffffffffffffffffffffffffffffffffffffffff16148190610e55576040517f08c379a0000000000000000000000000000000000000000000000000000000008152600401610e4c9190611dbe565b60405180910390fd5b5082600073ffffffffffffffffffffffffffffffffffffffff168173ffffffffffffffffffffffffffffffffffffffff1603610ec6576040517f08c379a0000000000000000000000000000000000000000000000000000000008152600401610ebd906128c6565b60405180910390fd5b83600160006101000a81548173ffffffffffffffffffffffffffffffffffffffff021916908373ffffffffffffffffffffffffffffffffffffffff1602179055508373ffffffffffffffffffffffffffffffffffffffff16600160009054906101000a900473ffffffffffffffffffffffffffffffffffffffff1673ffffffffffffffffffffffffffffffffffffffff167ff2d963efb295a04596a9ef8911542f152426704d31549c5e2d60cc7855bd8ffb60405160405180910390a350505050565b60048181548110610f9957600080fd5b90600052602060002090600302016000915090508060000160009054906101000a900473ffffffffffffffffffffffffffffffffffffffff16908060010154908060020160009054906101000a900460ff16908060020160019054906101000a900460ff16905084565b6040518060400160405280600a81526020017f6164644d656d626572730000000000000000000000000000000000000000000081525060008160405160200161104c9190612551565b6040516020818303038152906040529050600160009054906101000a900473ffffffffffffffffffffffffffffffffffffffff1673ffffffffffffffffffffffffffffffffffffffff163373ffffffffffffffffffffffffffffffffffffffff161481906110f0576040517f08c379a00000000000000000000000000000000000000000000000000000000081526004016110e79190611dbe565b60405180910390fd5b5060005b835181101561113357611120848281518110611113576111126126dd565b5b602002602001015161146a565b808061112b9061279e565b9150506110f4565b50505050565b6040518060400160405280601181526020017f72656e6f756e63654f776e6572736869700000000000000000000000000000008152506000816040516020016111829190612832565b604051602081830303815290604052905060008054906101000a900473ffffffffffffffffffffffffffffffffffffffff1673ffffffffffffffffffffffffffffffffffffffff163373ffffffffffffffffffffffffffffffffffffffff16148190611224576040517f08c379a000000000000000000000000000000000000000000000000000000000815260040161121b9190611dbe565b60405180910390fd5b5060008060006101000a81548173ffffffffffffffffffffffffffffffffffffffff021916908373ffffffffffffffffffffffffffffffffffffffff160217905550600073ffffffffffffffffffffffffffffffffffffffff1660008054906101000a900473ffffffffffffffffffffffffffffffffffffffff1673ffffffffffffffffffffffffffffffffffffffff167f8be0079c531659141344cd1fd0a4f28419497f9722a3daafe3b4186f6b6457e060405160405180910390a35050565b600381815481106112f557600080fd5b90600052602060002090600302016000915090508060000160009054906101000a900473ffffffffffffffffffffffffffffffffffffffff16908060010154908060020154905083565b60008060009054906101000a900473ffffffffffffffffffffffffffffffffffffffff16905090565b6000600480549050905090565b60606004805480602002602001604051908101604052809291908181526020016000905b8282101561146157838290600052602060002090600302016040518060800160405290816000820160009054906101000a900473ffffffffffffffffffffffffffffffffffffffff1673ffffffffffffffffffffffffffffffffffffffff1673ffffffffffffffffffffffffffffffffffffffff168152602001600182015481526020016002820160009054906101000a900460ff161515151581526020016002820160019054906101000a900460ff16151515158152505081526020019060010190611399565b50505050905090565b6040518060400160405280600981526020017f6164644d656d62657200000000000000000000000000000000000000000000008152506000816040516020016114b39190612551565b6040516020818303038152906040529050600160009054906101000a900473ffffffffffffffffffffffffffffffffffffffff1673ffffffffffffffffffffffffffffffffffffffff163373ffffffffffffffffffffffffffffffffffffffff16148190611557576040517f08c379a000000000000000000000000000000000000000000000000000000000815260040161154e9190611dbe565b60405180910390fd5b50826000151561156682610bb4565b604001511515146115ac576040517f08c379a00000000000000000000000000000000000000000000000000000000081526004016115a390612932565b60405180910390fd5b600060405180608001604052808673ffffffffffffffffffffffffffffffffffffffff16815260200160008152602001600115158152602001600115158152509050600481908060018154018082558091505060019003906000526020600020906003020160009091909190915060008201518160000160006101000a81548173ffffffffffffffffffffffffffffffffffffffff021916908373ffffffffffffffffffffffffffffffffffffffff1602179055506020820151816001015560408201518160020160006101000a81548160ff02191690831515021790555060608201518160020160016101000a81548160ff0219169083151502179055505050806000015173ffffffffffffffffffffffffffffffffffffffff167f1a2323d99020f3db8e6ea85b1eea81e5bf422695877228e3d8a0241d7e957a6c60405160405180910390a25050505050565b6040518060400160405280601181526020017f7472616e736665724f776e6572736869700000000000000000000000000000008152506000816040516020016117449190612832565b604051602081830303815290604052905060008054906101000a900473ffffffffffffffffffffffffffffffffffffffff1673ffffffffffffffffffffffffffffffffffffffff163373ffffffffffffffffffffffffffffffffffffffff161481906117e6576040517f08c379a00000000000000000000000000000000000000000000000000000000081526004016117dd9190611dbe565b60405180910390fd5b5082600073ffffffffffffffffffffffffffffffffffffffff168173ffffffffffffffffffffffffffffffffffffffff1603611857576040517f08c379a000000000000000000000000000000000000000000000000000000000815260040161184e906128c6565b60405180910390fd5b836000806101000a81548173ffffffffffffffffffffffffffffffffffffffff021916908373ffffffffffffffffffffffffffffffffffffffff1602179055508373ffffffffffffffffffffffffffffffffffffffff1660008054906101000a900473ffffffffffffffffffffffffffffffffffffffff1673ffffffffffffffffffffffffffffffffffffffff167f8be0079c531659141344cd1fd0a4f28419497f9722a3daafe3b4186f6b6457e060405160405180910390a350505050565b6000600160009054906101000a900473ffffffffffffffffffffffffffffffffffffffff16905090565b6040518060400160405280600a81526020017f7061794d656d626572730000000000000000000000000000000000000000000081525060008160405160200161198a9190612551565b6040516020818303038152906040529050600160009054906101000a900473ffffffffffffffffffffffffffffffffffffffff1673ffffffffffffffffffffffffffffffffffffffff163373ffffffffffffffffffffffffffffffffffffffff16148190611a2e576040517f08c379a0000000000000000000000000000000000000000000000000000000008152600401611a259190611dbe565b60405180910390fd5b50600083806020019051810190611a459190612aa3565b9050600080825167ffffffffffffffff811115611a6557611a64612067565b5b604051908082528060200260200182016040528015611a935781602001602082028036833780820191505090505b50905060005b8351811015611c4b57600080858381518110611ab857611ab76126dd565b5b6020026020010151806020019051810190611ad39190612b16565b915091508085611ae39190612b56565b945084471015611b1f576040517f37f761d300000000000000000000000000000000000000000000000000000000815260040160405180910390fd5b600060405180606001604052808473ffffffffffffffffffffffffffffffffffffffff168152602001838152602001428152509050600381908060018154018082558091505060019003906000526020600020906003020160009091909190915060008201518160000160006101000a81548173ffffffffffffffffffffffffffffffffffffffff021916908373ffffffffffffffffffffffffffffffffffffffff1602179055506020820151816001015560408201518160020155505082858581518110611bf157611bf06126dd565b5b602002602001019073ffffffffffffffffffffffffffffffffffffffff16908173ffffffffffffffffffffffffffffffffffffffff1681525050611c3583836104de565b5050508080611c439061279e565b915050611a99565b5080604051611c5a9190612c42565b60405180910390203073ffffffffffffffffffffffffffffffffffffffff167fa91f577c57960996d311f4ff50dc07c35ff9184aba80a62d7e12e8a28a3002e884604051611ca89190611d13565b60405180910390a3505050505050565b6040518060800160405280600073ffffffffffffffffffffffffffffffffffffffff168152602001600081526020016000151581526020016000151581525090565b6000819050919050565b611d0d81611cfa565b82525050565b6000602082019050611d286000830184611d04565b92915050565b600081519050919050565b600082825260208201905092915050565b60005b83811015611d68578082015181840152602081019050611d4d565b60008484015250505050565b6000601f19601f8301169050919050565b6000611d9082611d2e565b611d9a8185611d39565b9350611daa818560208601611d4a565b611db381611d74565b840191505092915050565b60006020820190508181036000830152611dd88184611d85565b905092915050565b6000604051905090565b600080fd5b600080fd5b600073ffffffffffffffffffffffffffffffffffffffff82169050919050565b6000611e1f82611df4565b9050919050565b611e2f81611e14565b8114611e3a57600080fd5b50565b600081359050611e4c81611e26565b92915050565b611e5b81611cfa565b8114611e6657600080fd5b50565b600081359050611e7881611e52565b92915050565b60008060408385031215611e9557611e94611dea565b5b6000611ea385828601611e3d565b9250506020611eb485828601611e69565b9150509250929050565b6000611ec982611df4565b9050919050565b611ed981611ebe565b8114611ee457600080fd5b50565b600081359050611ef681611ed0565b92915050565b600060208284031215611f1257611f11611dea565b5b6000611f2084828501611ee7565b91505092915050565b611f3281611ebe565b82525050565b611f4181611cfa565b82525050565b60008115159050919050565b611f5c81611f47565b82525050565b608082016000820151611f786000850182611f29565b506020820151611f8b6020850182611f38565b506040820151611f9e6040850182611f53565b506060820151611fb16060850182611f53565b50505050565b6000608082019050611fcc6000830184611f62565b92915050565b600060208284031215611fe857611fe7611dea565b5b6000611ff684828501611e69565b91505092915050565b61200881611ebe565b82525050565b61201781611f47565b82525050565b60006080820190506120326000830187611fff565b61203f6020830186611d04565b61204c604083018561200e565b612059606083018461200e565b95945050505050565b600080fd5b7f4e487b7100000000000000000000000000000000000000000000000000000000600052604160045260246000fd5b61209f82611d74565b810181811067ffffffffffffffff821117156120be576120bd612067565b5b80604052505050565b60006120d1611de0565b90506120dd8282612096565b919050565b600067ffffffffffffffff8211156120fd576120fc612067565b5b602082029050602081019050919050565b600080fd5b6000612126612121846120e2565b6120c7565b905080838252602082019050602084028301858111156121495761214861210e565b5b835b81811015612172578061215e8882611ee7565b84526020840193505060208101905061214b565b5050509392505050565b600082601f83011261219157612190612062565b5b81356121a1848260208601612113565b91505092915050565b6000602082840312156121c0576121bf611dea565b5b600082013567ffffffffffffffff8111156121de576121dd611def565b5b6121ea8482850161217c565b91505092915050565b60006060820190506122086000830186611fff565b6122156020830185611d04565b6122226040830184611d04565b949350505050565b600060208201905061223f6000830184611fff565b92915050565b600081519050919050565b600082825260208201905092915050565b6000819050602082019050919050565b6080820160008201516122876000850182611f29565b50602082015161229a6020850182611f38565b5060408201516122ad6040850182611f53565b5060608201516122c06060850182611f53565b50505050565b60006122d28383612271565b60808301905092915050565b6000602082019050919050565b60006122f682612245565b6123008185612250565b935061230b83612261565b8060005b8381101561233c57815161232388826122c6565b975061232e836122de565b92505060018101905061230f565b5085935050505092915050565b6000602082019050818103600083015261236381846122eb565b905092915050565b600080fd5b600067ffffffffffffffff82111561238b5761238a612067565b5b61239482611d74565b9050602081019050919050565b82818337600083830152505050565b60006123c36123be84612370565b6120c7565b9050828152602081018484840111156123df576123de61236b565b5b6123ea8482856123a1565b509392505050565b600082601f83011261240757612406612062565b5b81356124178482602086016123b0565b91505092915050565b60006020828403121561243657612435611dea565b5b600082013567ffffffffffffffff81111561245457612453611def565b5b612460848285016123f2565b91505092915050565b7f4e487b7100000000000000000000000000000000000000000000000000000000600052602260045260246000fd5b600060028204905060018216806124b057607f821691505b6020821081036124c3576124c2612469565b5b50919050565b600081905092915050565b7f4f6e6c792074686520636f6e74726f6c6c65722063616e2063616c6c3a200000600082015250565b600061250a601e836124c9565b9150612515826124d4565b601e82019050919050565b600061252b82611d2e565b61253581856124c9565b9350612545818560208601611d4a565b80840191505092915050565b600061255c826124fd565b91506125688284612520565b915081905092915050565b7f596f75206d7573742073656e6420736f6d652045746865720000000000000000600082015250565b60006125a9601883611d39565b91506125b482612573565b602082019050919050565b600060208201905081810360008301526125d88161259c565b9050919050565b7f596f75206d7573742073656e642074686520636f727265637420616d6f756e7460008201527f206f662045746865720000000000000000000000000000000000000000000000602082015250565b600061263b602983611d39565b9150612646826125df565b604082019050919050565b6000602082019050818103600083015261266a8161262e565b9050919050565b7f4d656d62657220646f6573206e6f742065786973740000000000000000000000600082015250565b60006126a7601583611d39565b91506126b282612671565b602082019050919050565b600060208201905081810360008301526126d68161269a565b9050919050565b7f4e487b7100000000000000000000000000000000000000000000000000000000600052603260045260246000fd5b7f4e487b7100000000000000000000000000000000000000000000000000000000600052601160045260246000fd5b600061274682611cfa565b915061275183611cfa565b92508282039050818111156127695761276861270c565b5b92915050565b7f4e487b7100000000000000000000000000000000000000000000000000000000600052603160045260246000fd5b60006127a982611cfa565b91507fffffffffffffffffffffffffffffffffffffffffffffffffffffffffffffffff82036127db576127da61270c565b5b600182019050919050565b7f4f6e6c7920746865206f776e65722063616e2063616c6c3a2000000000000000600082015250565b600061281c6019836124c9565b9150612827826127e6565b601982019050919050565b600061283d8261280f565b91506128498284612520565b915081905092915050565b7f41646472657373206f66206e657720726f6c652063616e6e6f74206265207a6560008201527f726f206164647265737300000000000000000000000000000000000000000000602082015250565b60006128b0602a83611d39565b91506128bb82612854565b604082019050919050565b600060208201905081810360008301526128df816128a3565b9050919050565b7f4d656d62657220616c7265616479206578697374730000000000000000000000600082015250565b600061291c601583611d39565b9150612927826128e6565b602082019050919050565b6000602082019050818103600083015261294b8161290f565b9050919050565b600067ffffffffffffffff82111561296d5761296c612067565b5b602082029050602081019050919050565b600061299161298c84612370565b6120c7565b9050828152602081018484840111156129ad576129ac61236b565b5b6129b8848285611d4a565b509392505050565b600082601f8301126129d5576129d4612062565b5b81516129e584826020860161297e565b91505092915050565b6000612a016129fc84612952565b6120c7565b90508083825260208201905060208402830185811115612a2457612a2361210e565b5b835b81811015612a6b57805167ffffffffffffffff811115612a4957612a48612062565b5b808601612a5689826129c0565b85526020850194505050602081019050612a26565b5050509392505050565b600082601f830112612a8a57612a89612062565b5b8151612a9a8482602086016129ee565b91505092915050565b600060208284031215612ab957612ab8611dea565b5b600082015167ffffffffffffffff811115612ad757612ad6611def565b5b612ae384828501612a75565b91505092915050565b600081519050612afb81611e26565b92915050565b600081519050612b1081611e52565b92915050565b60008060408385031215612b2d57612b2c611dea565b5b6000612b3b85828601612aec565b9250506020612b4c85828601612b01565b9150509250929050565b6000612b6182611cfa565b9150612b6c83611cfa565b9250828201905080821115612b8457612b8361270c565b5b92915050565b600081519050919050565b600081905092915050565b6000819050602082019050919050565b612bb981611ebe565b82525050565b6000612bcb8383612bb0565b60208301905092915050565b6000602082019050919050565b6000612bef82612b8a565b612bf98185612b95565b9350612c0483612ba0565b8060005b83811015612c35578151612c1c8882612bbf565b9750612c2783612bd7565b925050600181019050612c08565b5085935050505092915050565b6000612c4e8284612be4565b91508190509291505056fea26469706673582212205c17b3a3d4ef09550f7485ca70f16fce9c11879caf4063ce555b062308c3d1fe64736f6c63430008110033",
  "linkReferences": {},
  "deployedLinkReferences": {}
}