{
  "_format": "hh-sol-artifact-1",
  "contractName": "OrganizationV1",
  "sourceName": "contracts/OrganizationV1.sol",
  "abi": [
    {
      "inputs": [
        {
          "internalType": "string",
          "name": "_name",
          "type": "string"
        },
        {
          "internalType": "address[]",
          "name": "_members",
          "type": "address[]"
        }
      ],
      "stateMutability": "payable",
      "type": "constructor"
    },
    {
      "inputs": [],
      "name": "NotEnoughEtherBalance",
      "type": "error"
    },
    {
      "inputs": [],
      "name": "TransferFailed",
      "type": "error"
    },
    {
      "anonymous": false,
      "inputs": [
        {
          "indexed": true,
          "internalType": "address",
          "name": "member",
          "type": "address"
        }
      ],
      "name": "AddMember",
      "type": "event"
    },
    {
      "anonymous": false,
      "inputs": [
        {
          "indexed": true,
          "internalType": "address",
          "name": "previousController",
          "type": "address"
        },
        {
          "indexed": true,
          "internalType": "address",
          "name": "newController",
          "type": "address"
        }
      ],
      "name": "ControllershipTransferred",
      "type": "event"
    },
    {
      "anonymous": false,
      "inputs": [
        {
          "indexed": true,
          "internalType": "address",
          "name": "from",
          "type": "address"
        },
        {
          "indexed": true,
          "internalType": "address[]",
          "name": "to",
          "type": "address[]"
        },
        {
          "indexed": false,
          "internalType": "uint256",
          "name": "value",
          "type": "uint256"
        }
      ],
      "name": "MultiTransfer",
      "type": "event"
    },
    {
      "anonymous": false,
      "inputs": [
        {
          "indexed": true,
          "internalType": "address",
          "name": "previousOwner",
          "type": "address"
        },
        {
          "indexed": true,
          "internalType": "address",
          "name": "newOwner",
          "type": "address"
        }
      ],
      "name": "OwnershipTransferred",
      "type": "event"
    },
    {
      "anonymous": false,
      "inputs": [
        {
          "indexed": true,
          "internalType": "address",
          "name": "from",
          "type": "address"
        },
        {
          "indexed": false,
          "internalType": "uint256",
          "name": "value",
          "type": "uint256"
        }
      ],
      "name": "ReceiveEth",
      "type": "event"
    },
    {
      "anonymous": false,
      "inputs": [
        {
          "indexed": true,
          "internalType": "address",
          "name": "member",
          "type": "address"
        }
      ],
      "name": "RemoveMember",
      "type": "event"
    },
    {
      "anonymous": false,
      "inputs": [
        {
          "indexed": true,
          "internalType": "address",
          "name": "from",
          "type": "address"
        },
        {
          "indexed": true,
          "internalType": "address",
          "name": "to",
          "type": "address"
        },
        {
          "indexed": false,
          "internalType": "uint256",
          "name": "value",
          "type": "uint256"
        }
      ],
      "name": "Transfer",
      "type": "event"
    },
    {
      "inputs": [
        {
          "internalType": "address",
          "name": "account",
          "type": "address"
        }
      ],
      "name": "addMember",
      "outputs": [],
      "stateMutability": "nonpayable",
      "type": "function"
    },
    {
      "inputs": [
        {
          "internalType": "address[]",
          "name": "_members",
          "type": "address[]"
        }
      ],
      "name": "addMembers",
      "outputs": [],
      "stateMutability": "nonpayable",
      "type": "function"
    },
    {
      "inputs": [],
      "name": "controller",
      "outputs": [
        {
          "internalType": "address",
          "name": "",
          "type": "address"
        }
      ],
      "stateMutability": "view",
      "type": "function"
    },
    {
      "inputs": [],
      "name": "getBalance",
      "outputs": [
        {
          "internalType": "uint256",
          "name": "",
          "type": "uint256"
        }
      ],
      "stateMutability": "view",
      "type": "function"
    },
    {
      "inputs": [
        {
          "internalType": "address",
          "name": "account",
          "type": "address"
        }
      ],
      "name": "getMember",
      "outputs": [
        {
          "components": [
            {
              "internalType": "address",
              "name": "account",
              "type": "address"
            },
            {
              "internalType": "uint256",
              "name": "balance",
              "type": "uint256"
            },
            {
              "internalType": "bool",
              "name": "exists",
              "type": "bool"
            },
            {
              "internalType": "bool",
              "name": "active",
              "type": "bool"
            }
          ],
          "internalType": "struct Member",
          "name": "",
          "type": "tuple"
        }
      ],
      "stateMutability": "view",
      "type": "function"
    },
    {
      "inputs": [],
      "name": "getMemberCount",
      "outputs": [
        {
          "internalType": "uint256",
          "name": "",
          "type": "uint256"
        }
      ],
      "stateMutability": "view",
      "type": "function"
    },
    {
      "inputs": [],
      "name": "getMembers",
      "outputs": [
        {
          "components": [
            {
              "internalType": "address",
              "name": "account",
              "type": "address"
            },
            {
              "internalType": "uint256",
              "name": "balance",
              "type": "uint256"
            },
            {
              "internalType": "bool",
              "name": "exists",
              "type": "bool"
            },
            {
              "internalType": "bool",
              "name": "active",
              "type": "bool"
            }
          ],
          "internalType": "struct Member[]",
          "name": "",
          "type": "tuple[]"
        }
      ],
      "stateMutability": "view",
      "type": "function"
    },
    {
      "inputs": [],
      "name": "memberCount",
      "outputs": [
        {
          "internalType": "uint256",
          "name": "",
          "type": "uint256"
        }
      ],
      "stateMutability": "view",
      "type": "function"
    },
    {
      "inputs": [
        {
          "internalType": "address",
          "name": "",
          "type": "address"
        }
      ],
      "name": "members",
      "outputs": [
        {
          "internalType": "address",
          "name": "account",
          "type": "address"
        },
        {
          "internalType": "uint256",
          "name": "balance",
          "type": "uint256"
        },
        {
          "internalType": "bool",
          "name": "exists",
          "type": "bool"
        },
        {
          "internalType": "bool",
          "name": "active",
          "type": "bool"
        }
      ],
      "stateMutability": "view",
      "type": "function"
    },
    {
      "inputs": [
        {
          "internalType": "uint256",
          "name": "",
          "type": "uint256"
        }
      ],
      "name": "membersAccounts",
      "outputs": [
        {
          "internalType": "address",
          "name": "",
          "type": "address"
        }
      ],
      "stateMutability": "view",
      "type": "function"
    },
    {
      "inputs": [],
      "name": "name",
      "outputs": [
        {
          "internalType": "string",
          "name": "",
          "type": "string"
        }
      ],
      "stateMutability": "view",
      "type": "function"
    },
    {
      "inputs": [],
      "name": "owner",
      "outputs": [
        {
          "internalType": "address",
          "name": "",
          "type": "address"
        }
      ],
      "stateMutability": "view",
      "type": "function"
    },
    {
      "inputs": [
        {
          "internalType": "address payable",
          "name": "_member",
          "type": "address"
        },
        {
          "internalType": "uint256",
          "name": "_amount",
          "type": "uint256"
        }
      ],
      "name": "payMember",
      "outputs": [],
      "stateMutability": "nonpayable",
      "type": "function"
    },
    {
      "inputs": [
        {
          "internalType": "bytes",
          "name": "_payments",
          "type": "bytes"
        }
      ],
      "name": "payMembers",
      "outputs": [],
      "stateMutability": "nonpayable",
      "type": "function"
    },
    {
      "inputs": [
        {
          "internalType": "uint256",
          "name": "",
          "type": "uint256"
        }
      ],
      "name": "payments",
      "outputs": [
        {
          "internalType": "address",
          "name": "to",
          "type": "address"
        },
        {
          "internalType": "uint256",
          "name": "amount",
          "type": "uint256"
        },
        {
          "internalType": "uint256",
          "name": "timestamp",
          "type": "uint256"
        }
      ],
      "stateMutability": "view",
      "type": "function"
    },
    {
      "inputs": [
        {
          "internalType": "address",
          "name": "account",
          "type": "address"
        }
      ],
      "name": "removeMember",
      "outputs": [],
      "stateMutability": "nonpayable",
      "type": "function"
    },
    {
      "inputs": [],
      "name": "renounceOwnership",
      "outputs": [],
      "stateMutability": "nonpayable",
      "type": "function"
    },
    {
      "inputs": [
        {
          "internalType": "address",
          "name": "newController",
          "type": "address"
        }
      ],
      "name": "transferControllership",
      "outputs": [],
      "stateMutability": "nonpayable",
      "type": "function"
    },
    {
      "inputs": [
        {
          "internalType": "address",
          "name": "newOwner",
          "type": "address"
        }
      ],
      "name": "transferOwnership",
      "outputs": [],
      "stateMutability": "nonpayable",
      "type": "function"
    },
    {
      "stateMutability": "payable",
      "type": "receive"
    }
  ],
  "bytecode": "0x608060405260405162003fad38038062003fad8339818101604052810190620000299190620009d0565b620000396200008460201b60201c565b81600290816200004a919062000ca0565b506200005c81620001bd60201b60201c565b6200007c620000706200030760201b60201c565b6200033160201b60201c565b505062000fd2565b33600160006101000a81548173ffffffffffffffffffffffffffffffffffffffff021916908373ffffffffffffffffffffffffffffffffffffffff160217905550336000806101000a81548173ffffffffffffffffffffffffffffffffffffffff021916908373ffffffffffffffffffffffffffffffffffffffff1602179055503373ffffffffffffffffffffffffffffffffffffffff16600073ffffffffffffffffffffffffffffffffffffffff167f8be0079c531659141344cd1fd0a4f28419497f9722a3daafe3b4186f6b6457e060405160405180910390a33373ffffffffffffffffffffffffffffffffffffffff16600073ffffffffffffffffffffffffffffffffffffffff167ff2d963efb295a04596a9ef8911542f152426704d31549c5e2d60cc7855bd8ffb60405160405180910390a3565b6040518060400160405280600a81526020017f6164644d656d626572730000000000000000000000000000000000000000000081525060008160405160200162000208919062000e19565b6040516020818303038152906040529050600160009054906101000a900473ffffffffffffffffffffffffffffffffffffffff1673ffffffffffffffffffffffffffffffffffffffff163373ffffffffffffffffffffffffffffffffffffffff16148190620002af576040517f08c379a0000000000000000000000000000000000000000000000000000000008152600401620002a6919062000e91565b60405180910390fd5b5060005b83518110156200030157620002eb848281518110620002d757620002d662000eb5565b5b60200260200101516200033160201b60201c565b8080620002f89062000f13565b915050620002b3565b50505050565b6000600160009054906101000a900473ffffffffffffffffffffffffffffffffffffffff16905090565b6040518060400160405280600981526020017f6164644d656d62657200000000000000000000000000000000000000000000008152506000816040516020016200037c919062000e19565b6040516020818303038152906040529050600160009054906101000a900473ffffffffffffffffffffffffffffffffffffffff1673ffffffffffffffffffffffffffffffffffffffff163373ffffffffffffffffffffffffffffffffffffffff1614819062000423576040517f08c379a00000000000000000000000000000000000000000000000000000000081526004016200041a919062000e91565b60405180910390fd5b508260001515600560008373ffffffffffffffffffffffffffffffffffffffff1673ffffffffffffffffffffffffffffffffffffffff16815260200190815260200160002060020160009054906101000a900460ff16151514620004be576040517f08c379a0000000000000000000000000000000000000000000000000000000008152600401620004b59062000fb0565b60405180910390fd5b600060405180608001604052808673ffffffffffffffffffffffffffffffffffffffff1681526020016000815260200160011515815260200160011515815250905080600560008773ffffffffffffffffffffffffffffffffffffffff1673ffffffffffffffffffffffffffffffffffffffff16815260200190815260200160002060008201518160000160006101000a81548173ffffffffffffffffffffffffffffffffffffffff021916908373ffffffffffffffffffffffffffffffffffffffff1602179055506020820151816001015560408201518160020160006101000a81548160ff02191690831515021790555060608201518160020160016101000a81548160ff0219169083151502179055509050506003859080600181540180825580915050600190039060005260206000200160009091909190916101000a81548173ffffffffffffffffffffffffffffffffffffffff021916908373ffffffffffffffffffffffffffffffffffffffff160217905550600460008154809291906200064c9062000f13565b9190505550600560008673ffffffffffffffffffffffffffffffffffffffff1673ffffffffffffffffffffffffffffffffffffffff16815260200190815260200160002060000160009054906101000a900473ffffffffffffffffffffffffffffffffffffffff1673ffffffffffffffffffffffffffffffffffffffff167f1a2323d99020f3db8e6ea85b1eea81e5bf422695877228e3d8a0241d7e957a6c60405160405180910390a25050505050565b6000604051905090565b600080fd5b600080fd5b600080fd5b600080fd5b6000601f19601f8301169050919050565b7f4e487b7100000000000000000000000000000000000000000000000000000000600052604160045260246000fd5b62000766826200071b565b810181811067ffffffffffffffff821117156200078857620007876200072c565b5b80604052505050565b60006200079d620006fd565b9050620007ab82826200075b565b919050565b600067ffffffffffffffff821115620007ce57620007cd6200072c565b5b620007d9826200071b565b9050602081019050919050565b60005b8381101562000806578082015181840152602081019050620007e9565b60008484015250505050565b6000620008296200082384620007b0565b62000791565b90508281526020810184848401111562000848576200084762000716565b5b62000855848285620007e6565b509392505050565b600082601f83011262000875576200087462000711565b5b81516200088784826020860162000812565b91505092915050565b600067ffffffffffffffff821115620008ae57620008ad6200072c565b5b602082029050602081019050919050565b600080fd5b600073ffffffffffffffffffffffffffffffffffffffff82169050919050565b6000620008f182620008c4565b9050919050565b6200090381620008e4565b81146200090f57600080fd5b50565b6000815190506200092381620008f8565b92915050565b6000620009406200093a8462000890565b62000791565b90508083825260208201905060208402830185811115620009665762000965620008bf565b5b835b818110156200099357806200097e888262000912565b84526020840193505060208101905062000968565b5050509392505050565b600082601f830112620009b557620009b462000711565b5b8151620009c784826020860162000929565b91505092915050565b60008060408385031215620009ea57620009e962000707565b5b600083015167ffffffffffffffff81111562000a0b5762000a0a6200070c565b5b62000a19858286016200085d565b925050602083015167ffffffffffffffff81111562000a3d5762000a3c6200070c565b5b62000a4b858286016200099d565b9150509250929050565b600081519050919050565b7f4e487b7100000000000000000000000000000000000000000000000000000000600052602260045260246000fd5b6000600282049050600182168062000aa857607f821691505b60208210810362000abe5762000abd62000a60565b5b50919050565b60008190508160005260206000209050919050565b60006020601f8301049050919050565b600082821b905092915050565b60006008830262000b287fffffffffffffffffffffffffffffffffffffffffffffffffffffffffffffffff8262000ae9565b62000b34868362000ae9565b95508019841693508086168417925050509392505050565b6000819050919050565b6000819050919050565b600062000b8162000b7b62000b758462000b4c565b62000b56565b62000b4c565b9050919050565b6000819050919050565b62000b9d8362000b60565b62000bb562000bac8262000b88565b84845462000af6565b825550505050565b600090565b62000bcc62000bbd565b62000bd981848462000b92565b505050565b5b8181101562000c015762000bf560008262000bc2565b60018101905062000bdf565b5050565b601f82111562000c505762000c1a8162000ac4565b62000c258462000ad9565b8101602085101562000c35578190505b62000c4d62000c448562000ad9565b83018262000bde565b50505b505050565b600082821c905092915050565b600062000c756000198460080262000c55565b1980831691505092915050565b600062000c90838362000c62565b9150826002028217905092915050565b62000cab8262000a55565b67ffffffffffffffff81111562000cc75762000cc66200072c565b5b62000cd3825462000a8f565b62000ce082828562000c05565b600060209050601f83116001811462000d18576000841562000d03578287015190505b62000d0f858262000c82565b86555062000d7f565b601f19841662000d288662000ac4565b60005b8281101562000d525784890151825560018201915060208501945060208101905062000d2b565b8683101562000d72578489015162000d6e601f89168262000c62565b8355505b6001600288020188555050505b505050505050565b600081905092915050565b7f4f6e6c792074686520636f6e74726f6c6c65722063616e2063616c6c3a200000600082015250565b600062000dca601e8362000d87565b915062000dd78262000d92565b601e82019050919050565b600062000def8262000a55565b62000dfb818562000d87565b935062000e0d818560208601620007e6565b80840191505092915050565b600062000e268262000dbb565b915062000e34828462000de2565b915081905092915050565b600082825260208201905092915050565b600062000e5d8262000a55565b62000e69818562000e3f565b935062000e7b818560208601620007e6565b62000e86816200071b565b840191505092915050565b6000602082019050818103600083015262000ead818462000e50565b905092915050565b7f4e487b7100000000000000000000000000000000000000000000000000000000600052603260045260246000fd5b7f4e487b7100000000000000000000000000000000000000000000000000000000600052601160045260246000fd5b600062000f208262000b4c565b91507fffffffffffffffffffffffffffffffffffffffffffffffffffffffffffffffff820362000f555762000f5462000ee4565b5b600182019050919050565b7f4d656d62657220616c7265616479206578697374730000000000000000000000600082015250565b600062000f9860158362000e3f565b915062000fa58262000f60565b602082019050919050565b6000602082019050818103600083015262000fcb8162000f89565b9050919050565b612fcb8062000fe26000396000f3fe6080604052600436106101185760003560e01c8063715018a6116100a0578063bbc56fd111610064578063bbc56fd1146103eb578063ca6d56dc14610428578063f2fde38b14610451578063f77c47911461047a578063fbcea798146104a55761016d565b8063715018a61461031457806387d817891461032b5780638da5cb5b1461036a578063997072f7146103955780639eab5253146103c05761016d565b806311aee380116100e757806311aee3801461022f57806312065fe01461025a5780632ada2596146102855780633dbb8950146102c25780636f4d469b146102eb5761016d565b806306fdde031461017257806308ae4b0c1461019d5780630a9fd056146101dd5780630b1ca49a146102065761016d565b3661016d573373ffffffffffffffffffffffffffffffffffffffff167fefc0288202e432ade6bf71491d0001d7e389ad4f8e4e9c7aa038dd1a563efc60346040516101639190612026565b60405180910390a2005b600080fd5b34801561017e57600080fd5b506101876104ce565b60405161019491906120d1565b60405180910390f35b3480156101a957600080fd5b506101c460048036038101906101bf9190612165565b61055c565b6040516101d494939291906121bc565b60405180910390f35b3480156101e957600080fd5b5061020460048036038101906101ff919061226b565b6105c6565b005b34801561021257600080fd5b5061022d60048036038101906102289190612165565b6108b8565b005b34801561023b57600080fd5b50610244610d1f565b6040516102519190612026565b60405180910390f35b34801561026657600080fd5b5061026f610d25565b60405161027c9190612026565b60405180910390f35b34801561029157600080fd5b506102ac60048036038101906102a79190612165565b610d2d565b6040516102b9919061232d565b60405180910390f35b3480156102ce57600080fd5b506102e960048036038101906102e49190612165565b610e1c565b005b3480156102f757600080fd5b50610312600480360381019061030d9190612490565b61103b565b005b34801561032057600080fd5b50610329611171565b005b34801561033757600080fd5b50610352600480360381019061034d91906124d9565b61131d565b60405161036193929190612506565b60405180910390f35b34801561037657600080fd5b5061037f611377565b60405161038c919061253d565b60405180910390f35b3480156103a157600080fd5b506103aa6113a0565b6040516103b79190612026565b60405180910390f35b3480156103cc57600080fd5b506103d56113aa565b6040516103e2919061265c565b60405180910390f35b3480156103f757600080fd5b50610412600480360381019061040d91906124d9565b61160d565b60405161041f919061253d565b60405180910390f35b34801561043457600080fd5b5061044f600480360381019061044a9190612165565b61164c565b005b34801561045d57600080fd5b5061047860048036038101906104739190612165565b611a0e565b005b34801561048657600080fd5b5061048f611c2a565b60405161049c919061253d565b60405180910390f35b3480156104b157600080fd5b506104cc60048036038101906104c79190612733565b611c54565b005b600280546104db906127ab565b80601f0160208091040260200160405190810160405280929190818152602001828054610507906127ab565b80156105545780601f1061052957610100808354040283529160200191610554565b820191906000526020600020905b81548152906001019060200180831161053757829003601f168201915b505050505081565b60056020528060005260406000206000915090508060000160009054906101000a900473ffffffffffffffffffffffffffffffffffffffff16908060010154908060020160009054906101000a900460ff16908060020160019054906101000a900460ff16905084565b6040518060400160405280600981526020017f7061794d656d626572000000000000000000000000000000000000000000000081525060008160405160200161060f9190612864565b6040516020818303038152906040529050600160009054906101000a900473ffffffffffffffffffffffffffffffffffffffff1673ffffffffffffffffffffffffffffffffffffffff163373ffffffffffffffffffffffffffffffffffffffff161481906106b3576040517f08c379a00000000000000000000000000000000000000000000000000000000081526004016106aa91906120d1565b60405180910390fd5b5082600081116106f8576040517f08c379a00000000000000000000000000000000000000000000000000000000081526004016106ef906128d2565b60405180910390fd5b83600047905080821115610741576040517f08c379a000000000000000000000000000000000000000000000000000000000815260040161073890612964565b60405180910390fd5b8660011515600560008373ffffffffffffffffffffffffffffffffffffffff1673ffffffffffffffffffffffffffffffffffffffff16815260200190815260200160002060020160009054906101000a900460ff161515146107d8576040517f08c379a00000000000000000000000000000000000000000000000000000000081526004016107cf906129d0565b60405180910390fd5b8773ffffffffffffffffffffffffffffffffffffffff166108fc889081150290604051600060405180830381858888f193505050501561087c578773ffffffffffffffffffffffffffffffffffffffff163073ffffffffffffffffffffffffffffffffffffffff167fddf252ad1be2c89b69c2b068fc378daa952ba7f163c4a11628f55a4df523b3ef8960405161086f9190612026565b60405180910390a36108ae565b6040517f90b8ec1800000000000000000000000000000000000000000000000000000000815260040160405180910390fd5b5050505050505050565b6040518060400160405280600c81526020017f72656d6f76654d656d62657200000000000000000000000000000000000000008152506000816040516020016109019190612864565b6040516020818303038152906040529050600160009054906101000a900473ffffffffffffffffffffffffffffffffffffffff1673ffffffffffffffffffffffffffffffffffffffff163373ffffffffffffffffffffffffffffffffffffffff161481906109a5576040517f08c379a000000000000000000000000000000000000000000000000000000000815260040161099c91906120d1565b60405180910390fd5b508260011515600560008373ffffffffffffffffffffffffffffffffffffffff1673ffffffffffffffffffffffffffffffffffffffff16815260200190815260200160002060020160009054906101000a900460ff16151514610a3d576040517f08c379a0000000000000000000000000000000000000000000000000000000008152600401610a34906129d0565b60405180910390fd5b6000600560008673ffffffffffffffffffffffffffffffffffffffff1673ffffffffffffffffffffffffffffffffffffffff16815260200190815260200160002060020160006101000a81548160ff021916908315150217905550600560008573ffffffffffffffffffffffffffffffffffffffff1673ffffffffffffffffffffffffffffffffffffffff168152602001908152602001600020600080820160006101000a81549073ffffffffffffffffffffffffffffffffffffffff021916905560018201600090556002820160006101000a81549060ff02191690556002820160016101000a81549060ff0219169055505060046000815480929190610b4490612a1f565b919050555060005b600380549050811015610d18578473ffffffffffffffffffffffffffffffffffffffff1660038281548110610b8457610b83612a48565b5b9060005260206000200160009054906101000a900473ffffffffffffffffffffffffffffffffffffffff1673ffffffffffffffffffffffffffffffffffffffff1603610d055760036001600380549050610bde9190612a77565b81548110610bef57610bee612a48565b5b9060005260206000200160009054906101000a900473ffffffffffffffffffffffffffffffffffffffff1660038281548110610c2e57610c2d612a48565b5b9060005260206000200160006101000a81548173ffffffffffffffffffffffffffffffffffffffff021916908373ffffffffffffffffffffffffffffffffffffffff1602179055506003805480610c8857610c87612aab565b5b6001900381819060005260206000200160006101000a81549073ffffffffffffffffffffffffffffffffffffffff021916905590558473ffffffffffffffffffffffffffffffffffffffff167f7693a3e9eac51f172f145e6f54bc5554168997a1f4efb40f3fad091aa7cfb0e760405160405180910390a2610d18565b8080610d1090612ada565b915050610b4c565b5050505050565b60045481565b600047905090565b610d35611fcb565b600560008373ffffffffffffffffffffffffffffffffffffffff1673ffffffffffffffffffffffffffffffffffffffff1681526020019081526020016000206040518060800160405290816000820160009054906101000a900473ffffffffffffffffffffffffffffffffffffffff1673ffffffffffffffffffffffffffffffffffffffff1673ffffffffffffffffffffffffffffffffffffffff168152602001600182015481526020016002820160009054906101000a900460ff161515151581526020016002820160019054906101000a900460ff1615151515815250509050919050565b6040518060400160405280601181526020017f7472616e736665724f776e657273686970000000000000000000000000000000815250600081604051602001610e659190612b6e565b604051602081830303815290604052905060008054906101000a900473ffffffffffffffffffffffffffffffffffffffff1673ffffffffffffffffffffffffffffffffffffffff163373ffffffffffffffffffffffffffffffffffffffff16148190610f07576040517f08c379a0000000000000000000000000000000000000000000000000000000008152600401610efe91906120d1565b60405180910390fd5b5082600073ffffffffffffffffffffffffffffffffffffffff168173ffffffffffffffffffffffffffffffffffffffff1603610f78576040517f08c379a0000000000000000000000000000000000000000000000000000000008152600401610f6f90612c02565b60405180910390fd5b83600160006101000a81548173ffffffffffffffffffffffffffffffffffffffff021916908373ffffffffffffffffffffffffffffffffffffffff1602179055508373ffffffffffffffffffffffffffffffffffffffff16600160009054906101000a900473ffffffffffffffffffffffffffffffffffffffff1673ffffffffffffffffffffffffffffffffffffffff167ff2d963efb295a04596a9ef8911542f152426704d31549c5e2d60cc7855bd8ffb60405160405180910390a350505050565b6040518060400160405280600a81526020017f6164644d656d62657273000000000000000000000000000000000000000000008152506000816040516020016110849190612864565b6040516020818303038152906040529050600160009054906101000a900473ffffffffffffffffffffffffffffffffffffffff1673ffffffffffffffffffffffffffffffffffffffff163373ffffffffffffffffffffffffffffffffffffffff16148190611128576040517f08c379a000000000000000000000000000000000000000000000000000000000815260040161111f91906120d1565b60405180910390fd5b5060005b835181101561116b5761115884828151811061114b5761114a612a48565b5b602002602001015161164c565b808061116390612ada565b91505061112c565b50505050565b6040518060400160405280601181526020017f72656e6f756e63654f776e6572736869700000000000000000000000000000008152506000816040516020016111ba9190612b6e565b604051602081830303815290604052905060008054906101000a900473ffffffffffffffffffffffffffffffffffffffff1673ffffffffffffffffffffffffffffffffffffffff163373ffffffffffffffffffffffffffffffffffffffff1614819061125c576040517f08c379a000000000000000000000000000000000000000000000000000000000815260040161125391906120d1565b60405180910390fd5b5060008060006101000a81548173ffffffffffffffffffffffffffffffffffffffff021916908373ffffffffffffffffffffffffffffffffffffffff160217905550600073ffffffffffffffffffffffffffffffffffffffff1660008054906101000a900473ffffffffffffffffffffffffffffffffffffffff1673ffffffffffffffffffffffffffffffffffffffff167f8be0079c531659141344cd1fd0a4f28419497f9722a3daafe3b4186f6b6457e060405160405180910390a35050565b6006818154811061132d57600080fd5b90600052602060002090600302016000915090508060000160009054906101000a900473ffffffffffffffffffffffffffffffffffffffff16908060010154908060020154905083565b60008060009054906101000a900473ffffffffffffffffffffffffffffffffffffffff16905090565b6000600454905090565b6060600060045467ffffffffffffffff8111156113ca576113c961234d565b5b60405190808252806020026020018201604052801561140357816020015b6113f0611fcb565b8152602001906001900390816113e85790505b5090506000805b825181101561160457600560006003838154811061142b5761142a612a48565b5b9060005260206000200160009054906101000a900473ffffffffffffffffffffffffffffffffffffffff1673ffffffffffffffffffffffffffffffffffffffff1673ffffffffffffffffffffffffffffffffffffffff16815260200190815260200160002060020160009054906101000a900460ff16156115f15760056000600383815481106114be576114bd612a48565b5b9060005260206000200160009054906101000a900473ffffffffffffffffffffffffffffffffffffffff1673ffffffffffffffffffffffffffffffffffffffff1673ffffffffffffffffffffffffffffffffffffffff1681526020019081526020016000206040518060800160405290816000820160009054906101000a900473ffffffffffffffffffffffffffffffffffffffff1673ffffffffffffffffffffffffffffffffffffffff1673ffffffffffffffffffffffffffffffffffffffff168152602001600182015481526020016002820160009054906101000a900460ff161515151581526020016002820160019054906101000a900460ff1615151515815250508383815181106115d7576115d6612a48565b5b602002602001018190525081806115ed90612ada565b9250505b80806115fc90612ada565b91505061140a565b50819250505090565b6003818154811061161d57600080fd5b906000526020600020016000915054906101000a900473ffffffffffffffffffffffffffffffffffffffff1681565b6040518060400160405280600981526020017f6164644d656d62657200000000000000000000000000000000000000000000008152506000816040516020016116959190612864565b6040516020818303038152906040529050600160009054906101000a900473ffffffffffffffffffffffffffffffffffffffff1673ffffffffffffffffffffffffffffffffffffffff163373ffffffffffffffffffffffffffffffffffffffff16148190611739576040517f08c379a000000000000000000000000000000000000000000000000000000000815260040161173091906120d1565b60405180910390fd5b508260001515600560008373ffffffffffffffffffffffffffffffffffffffff1673ffffffffffffffffffffffffffffffffffffffff16815260200190815260200160002060020160009054906101000a900460ff161515146117d1576040517f08c379a00000000000000000000000000000000000000000000000000000000081526004016117c890612c6e565b60405180910390fd5b600060405180608001604052808673ffffffffffffffffffffffffffffffffffffffff1681526020016000815260200160011515815260200160011515815250905080600560008773ffffffffffffffffffffffffffffffffffffffff1673ffffffffffffffffffffffffffffffffffffffff16815260200190815260200160002060008201518160000160006101000a81548173ffffffffffffffffffffffffffffffffffffffff021916908373ffffffffffffffffffffffffffffffffffffffff1602179055506020820151816001015560408201518160020160006101000a81548160ff02191690831515021790555060608201518160020160016101000a81548160ff0219169083151502179055509050506003859080600181540180825580915050600190039060005260206000200160009091909190916101000a81548173ffffffffffffffffffffffffffffffffffffffff021916908373ffffffffffffffffffffffffffffffffffffffff1602179055506004600081548092919061195d90612ada565b9190505550600560008673ffffffffffffffffffffffffffffffffffffffff1673ffffffffffffffffffffffffffffffffffffffff16815260200190815260200160002060000160009054906101000a900473ffffffffffffffffffffffffffffffffffffffff1673ffffffffffffffffffffffffffffffffffffffff167f1a2323d99020f3db8e6ea85b1eea81e5bf422695877228e3d8a0241d7e957a6c60405160405180910390a25050505050565b6040518060400160405280601181526020017f7472616e736665724f776e657273686970000000000000000000000000000000815250600081604051602001611a579190612b6e565b604051602081830303815290604052905060008054906101000a900473ffffffffffffffffffffffffffffffffffffffff1673ffffffffffffffffffffffffffffffffffffffff163373ffffffffffffffffffffffffffffffffffffffff16148190611af9576040517f08c379a0000000000000000000000000000000000000000000000000000000008152600401611af091906120d1565b60405180910390fd5b5082600073ffffffffffffffffffffffffffffffffffffffff168173ffffffffffffffffffffffffffffffffffffffff1603611b6a576040517f08c379a0000000000000000000000000000000000000000000000000000000008152600401611b6190612c02565b60405180910390fd5b836000806101000a81548173ffffffffffffffffffffffffffffffffffffffff021916908373ffffffffffffffffffffffffffffffffffffffff1602179055508373ffffffffffffffffffffffffffffffffffffffff1660008054906101000a900473ffffffffffffffffffffffffffffffffffffffff1673ffffffffffffffffffffffffffffffffffffffff167f8be0079c531659141344cd1fd0a4f28419497f9722a3daafe3b4186f6b6457e060405160405180910390a350505050565b6000600160009054906101000a900473ffffffffffffffffffffffffffffffffffffffff16905090565b6040518060400160405280600a81526020017f7061794d656d6265727300000000000000000000000000000000000000000000815250600081604051602001611c9d9190612864565b6040516020818303038152906040529050600160009054906101000a900473ffffffffffffffffffffffffffffffffffffffff1673ffffffffffffffffffffffffffffffffffffffff163373ffffffffffffffffffffffffffffffffffffffff16148190611d41576040517f08c379a0000000000000000000000000000000000000000000000000000000008152600401611d3891906120d1565b60405180910390fd5b50600083806020019051810190611d589190612ddf565b9050600080825167ffffffffffffffff811115611d7857611d7761234d565b5b604051908082528060200260200182016040528015611da65781602001602082028036833780820191505090505b50905060005b8351811015611f5e57600080858381518110611dcb57611dca612a48565b5b6020026020010151806020019051810190611de69190612e52565b915091508085611df69190612e92565b945084471015611e32576040517f37f761d300000000000000000000000000000000000000000000000000000000815260040160405180910390fd5b600060405180606001604052808473ffffffffffffffffffffffffffffffffffffffff168152602001838152602001428152509050600681908060018154018082558091505060019003906000526020600020906003020160009091909190915060008201518160000160006101000a81548173ffffffffffffffffffffffffffffffffffffffff021916908373ffffffffffffffffffffffffffffffffffffffff1602179055506020820151816001015560408201518160020155505082858581518110611f0457611f03612a48565b5b602002602001019073ffffffffffffffffffffffffffffffffffffffff16908173ffffffffffffffffffffffffffffffffffffffff1681525050611f4883836105c6565b5050508080611f5690612ada565b915050611dac565b5080604051611f6d9190612f7e565b60405180910390203073ffffffffffffffffffffffffffffffffffffffff167fa91f577c57960996d311f4ff50dc07c35ff9184aba80a62d7e12e8a28a3002e884604051611fbb9190612026565b60405180910390a3505050505050565b6040518060800160405280600073ffffffffffffffffffffffffffffffffffffffff168152602001600081526020016000151581526020016000151581525090565b6000819050919050565b6120208161200d565b82525050565b600060208201905061203b6000830184612017565b92915050565b600081519050919050565b600082825260208201905092915050565b60005b8381101561207b578082015181840152602081019050612060565b60008484015250505050565b6000601f19601f8301169050919050565b60006120a382612041565b6120ad818561204c565b93506120bd81856020860161205d565b6120c681612087565b840191505092915050565b600060208201905081810360008301526120eb8184612098565b905092915050565b6000604051905090565b600080fd5b600080fd5b600073ffffffffffffffffffffffffffffffffffffffff82169050919050565b600061213282612107565b9050919050565b61214281612127565b811461214d57600080fd5b50565b60008135905061215f81612139565b92915050565b60006020828403121561217b5761217a6120fd565b5b600061218984828501612150565b91505092915050565b61219b81612127565b82525050565b60008115159050919050565b6121b6816121a1565b82525050565b60006080820190506121d16000830187612192565b6121de6020830186612017565b6121eb60408301856121ad565b6121f860608301846121ad565b95945050505050565b600061220c82612107565b9050919050565b61221c81612201565b811461222757600080fd5b50565b60008135905061223981612213565b92915050565b6122488161200d565b811461225357600080fd5b50565b6000813590506122658161223f565b92915050565b60008060408385031215612282576122816120fd565b5b60006122908582860161222a565b92505060206122a185828601612256565b9150509250929050565b6122b481612127565b82525050565b6122c38161200d565b82525050565b6122d2816121a1565b82525050565b6080820160008201516122ee60008501826122ab565b50602082015161230160208501826122ba565b50604082015161231460408501826122c9565b50606082015161232760608501826122c9565b50505050565b600060808201905061234260008301846122d8565b92915050565b600080fd5b7f4e487b7100000000000000000000000000000000000000000000000000000000600052604160045260246000fd5b61238582612087565b810181811067ffffffffffffffff821117156123a4576123a361234d565b5b80604052505050565b60006123b76120f3565b90506123c3828261237c565b919050565b600067ffffffffffffffff8211156123e3576123e261234d565b5b602082029050602081019050919050565b600080fd5b600061240c612407846123c8565b6123ad565b9050808382526020820190506020840283018581111561242f5761242e6123f4565b5b835b8181101561245857806124448882612150565b845260208401935050602081019050612431565b5050509392505050565b600082601f83011261247757612476612348565b5b81356124878482602086016123f9565b91505092915050565b6000602082840312156124a6576124a56120fd565b5b600082013567ffffffffffffffff8111156124c4576124c3612102565b5b6124d084828501612462565b91505092915050565b6000602082840312156124ef576124ee6120fd565b5b60006124fd84828501612256565b91505092915050565b600060608201905061251b6000830186612192565b6125286020830185612017565b6125356040830184612017565b949350505050565b60006020820190506125526000830184612192565b92915050565b600081519050919050565b600082825260208201905092915050565b6000819050602082019050919050565b60808201600082015161259a60008501826122ab565b5060208201516125ad60208501826122ba565b5060408201516125c060408501826122c9565b5060608201516125d360608501826122c9565b50505050565b60006125e58383612584565b60808301905092915050565b6000602082019050919050565b600061260982612558565b6126138185612563565b935061261e83612574565b8060005b8381101561264f57815161263688826125d9565b9750612641836125f1565b925050600181019050612622565b5085935050505092915050565b6000602082019050818103600083015261267681846125fe565b905092915050565b600080fd5b600067ffffffffffffffff82111561269e5761269d61234d565b5b6126a782612087565b9050602081019050919050565b82818337600083830152505050565b60006126d66126d184612683565b6123ad565b9050828152602081018484840111156126f2576126f161267e565b5b6126fd8482856126b4565b509392505050565b600082601f83011261271a57612719612348565b5b813561272a8482602086016126c3565b91505092915050565b600060208284031215612749576127486120fd565b5b600082013567ffffffffffffffff81111561276757612766612102565b5b61277384828501612705565b91505092915050565b7f4e487b7100000000000000000000000000000000000000000000000000000000600052602260045260246000fd5b600060028204905060018216806127c357607f821691505b6020821081036127d6576127d561277c565b5b50919050565b600081905092915050565b7f4f6e6c792074686520636f6e74726f6c6c65722063616e2063616c6c3a200000600082015250565b600061281d601e836127dc565b9150612828826127e7565b601e82019050919050565b600061283e82612041565b61284881856127dc565b935061285881856020860161205d565b80840191505092915050565b600061286f82612810565b915061287b8284612833565b915081905092915050565b7f596f75206d7573742073656e6420736f6d652045746865720000000000000000600082015250565b60006128bc60188361204c565b91506128c782612886565b602082019050919050565b600060208201905081810360008301526128eb816128af565b9050919050565b7f596f75206d7573742073656e642074686520636f727265637420616d6f756e7460008201527f206f662045746865720000000000000000000000000000000000000000000000602082015250565b600061294e60298361204c565b9150612959826128f2565b604082019050919050565b6000602082019050818103600083015261297d81612941565b9050919050565b7f4d656d62657220646f6573206e6f742065786973740000000000000000000000600082015250565b60006129ba60158361204c565b91506129c582612984565b602082019050919050565b600060208201905081810360008301526129e9816129ad565b9050919050565b7f4e487b7100000000000000000000000000000000000000000000000000000000600052601160045260246000fd5b6000612a2a8261200d565b915060008203612a3d57612a3c6129f0565b5b600182039050919050565b7f4e487b7100000000000000000000000000000000000000000000000000000000600052603260045260246000fd5b6000612a828261200d565b9150612a8d8361200d565b9250828203905081811115612aa557612aa46129f0565b5b92915050565b7f4e487b7100000000000000000000000000000000000000000000000000000000600052603160045260246000fd5b6000612ae58261200d565b91507fffffffffffffffffffffffffffffffffffffffffffffffffffffffffffffffff8203612b1757612b166129f0565b5b600182019050919050565b7f4f6e6c7920746865206f776e65722063616e2063616c6c3a2000000000000000600082015250565b6000612b586019836127dc565b9150612b6382612b22565b601982019050919050565b6000612b7982612b4b565b9150612b858284612833565b915081905092915050565b7f41646472657373206f66206e657720726f6c652063616e6e6f74206265207a6560008201527f726f206164647265737300000000000000000000000000000000000000000000602082015250565b6000612bec602a8361204c565b9150612bf782612b90565b604082019050919050565b60006020820190508181036000830152612c1b81612bdf565b9050919050565b7f4d656d62657220616c7265616479206578697374730000000000000000000000600082015250565b6000612c5860158361204c565b9150612c6382612c22565b602082019050919050565b60006020820190508181036000830152612c8781612c4b565b9050919050565b600067ffffffffffffffff821115612ca957612ca861234d565b5b602082029050602081019050919050565b6000612ccd612cc884612683565b6123ad565b905082815260208101848484011115612ce957612ce861267e565b5b612cf484828561205d565b509392505050565b600082601f830112612d1157612d10612348565b5b8151612d21848260208601612cba565b91505092915050565b6000612d3d612d3884612c8e565b6123ad565b90508083825260208201905060208402830185811115612d6057612d5f6123f4565b5b835b81811015612da757805167ffffffffffffffff811115612d8557612d84612348565b5b808601612d928982612cfc565b85526020850194505050602081019050612d62565b5050509392505050565b600082601f830112612dc657612dc5612348565b5b8151612dd6848260208601612d2a565b91505092915050565b600060208284031215612df557612df46120fd565b5b600082015167ffffffffffffffff811115612e1357612e12612102565b5b612e1f84828501612db1565b91505092915050565b600081519050612e3781612213565b92915050565b600081519050612e4c8161223f565b92915050565b60008060408385031215612e6957612e686120fd565b5b6000612e7785828601612e28565b9250506020612e8885828601612e3d565b9150509250929050565b6000612e9d8261200d565b9150612ea88361200d565b9250828201905080821115612ec057612ebf6129f0565b5b92915050565b600081519050919050565b600081905092915050565b6000819050602082019050919050565b612ef581612127565b82525050565b6000612f078383612eec565b60208301905092915050565b6000602082019050919050565b6000612f2b82612ec6565b612f358185612ed1565b9350612f4083612edc565b8060005b83811015612f71578151612f588882612efb565b9750612f6383612f13565b925050600181019050612f44565b5085935050505092915050565b6000612f8a8284612f20565b91508190509291505056fea2646970667358221220a1dfdf3d7229eb8d77c6e00661b2d4e3adb9266dfedfea245acd9f349cd2959f64736f6c63430008110033",
  "linkReferences": {},
  "deployedLinkReferences": {}
}